{
  "contractName": "MedicalChain",
  "abi": [
    {
      "inputs": [],
      "stateMutability": "nonpayable",
      "type": "constructor"
    },
    {
      "anonymous": false,
      "inputs": [
        {
          "indexed": false,
          "internalType": "address",
          "name": "admin",
          "type": "address"
        },
        {
          "indexed": false,
          "internalType": "address",
          "name": "doctor",
          "type": "address"
        }
      ],
      "name": "DrDetailsAdded",
      "type": "event"
    },
    {
      "anonymous": false,
      "inputs": [
        {
          "indexed": false,
          "internalType": "address",
          "name": "dr",
          "type": "address"
        },
        {
          "indexed": false,
          "internalType": "address",
          "name": "patient",
          "type": "address"
        }
      ],
      "name": "GrantAccessToDr",
      "type": "event"
    },
    {
      "anonymous": false,
      "inputs": [
        {
          "indexed": false,
          "internalType": "address",
          "name": "dr",
          "type": "address"
        },
        {
          "indexed": false,
          "internalType": "address",
          "name": "patient",
          "type": "address"
        }
      ],
      "name": "HealthRecordsAdded",
      "type": "event"
    },
    {
      "inputs": [
        {
          "internalType": "address",
          "name": "",
          "type": "address"
        }
      ],
      "name": "DoctorInfo",
      "outputs": [
        {
          "internalType": "bool",
          "name": "state",
          "type": "bool"
        },
        {
          "internalType": "address",
          "name": "dr_Id",
          "type": "address"
        },
        {
          "internalType": "string",
          "name": "d_Name",
          "type": "string"
        },
        {
          "internalType": "string",
          "name": "d_phone_Number",
          "type": "string"
        },
        {
          "internalType": "string",
          "name": "d_speciality",
          "type": "string"
        },
        {
          "internalType": "uint256",
          "name": "d_date_of_birth",
          "type": "uint256"
        },
        {
          "internalType": "address",
          "name": "universities",
          "type": "address"
        }
      ],
      "stateMutability": "view",
      "type": "function",
      "constant": true
    },
    {
      "inputs": [
        {
          "internalType": "uint256",
          "name": "",
          "type": "uint256"
        }
      ],
      "name": "DoctorList",
      "outputs": [
        {
          "internalType": "bool",
          "name": "state",
          "type": "bool"
        },
        {
          "internalType": "address",
          "name": "dr_Id",
          "type": "address"
        },
        {
          "internalType": "string",
          "name": "d_Name",
          "type": "string"
        },
        {
          "internalType": "string",
          "name": "d_phone_Number",
          "type": "string"
        },
        {
          "internalType": "string",
          "name": "d_speciality",
          "type": "string"
        },
        {
          "internalType": "uint256",
          "name": "d_date_of_birth",
          "type": "uint256"
        },
        {
          "internalType": "address",
          "name": "universities",
          "type": "address"
        }
      ],
      "stateMutability": "view",
      "type": "function",
      "constant": true
    },
    {
      "inputs": [
        {
          "internalType": "address",
          "name": "",
          "type": "address"
        },
        {
          "internalType": "address",
          "name": "",
          "type": "address"
        }
      ],
      "name": "HealthInfo",
      "outputs": [
        {
          "components": [
            {
              "internalType": "bool",
              "name": "state",
              "type": "bool"
            },
            {
              "internalType": "address",
              "name": "dr_Id",
              "type": "address"
            },
            {
              "internalType": "string",
              "name": "d_Name",
              "type": "string"
            },
            {
              "internalType": "string",
              "name": "d_phone_Number",
              "type": "string"
            },
            {
              "internalType": "string",
              "name": "d_speciality",
              "type": "string"
            },
            {
              "internalType": "uint256",
              "name": "d_date_of_birth",
              "type": "uint256"
            },
            {
              "internalType": "address",
              "name": "universities",
              "type": "address"
            }
          ],
          "internalType": "struct MedicalChain.Doctor",
          "name": "d",
          "type": "tuple"
        },
        {
          "components": [
            {
              "internalType": "bool",
              "name": "state",
              "type": "bool"
            },
            {
              "internalType": "address",
              "name": "pa_Id",
              "type": "address"
            },
            {
              "internalType": "string",
              "name": "pa_Name",
              "type": "string"
            },
            {
              "internalType": "string[]",
              "name": "pa_Records",
              "type": "string[]"
            },
            {
              "internalType": "string",
              "name": "pa_phone_Number",
              "type": "string"
            },
            {
              "internalType": "string",
              "name": "pa_blood_type",
              "type": "string"
            },
            {
              "internalType": "uint256",
              "name": "pa_date_of_birth",
              "type": "uint256"
            }
          ],
          "internalType": "struct MedicalChain.Patient",
          "name": "p",
          "type": "tuple"
        },
        {
          "components": [
            {
              "internalType": "string",
              "name": "symptom",
              "type": "string"
            },
            {
              "internalType": "string",
              "name": "prescription",
              "type": "string"
            }
          ],
          "internalType": "struct MedicalChain.PrescriptionDetails",
          "name": "pre",
          "type": "tuple"
        }
      ],
      "stateMutability": "view",
      "type": "function",
      "constant": true
    },
    {
      "inputs": [
        {
          "internalType": "address",
          "name": "",
          "type": "address"
        }
      ],
      "name": "PatientInfo",
      "outputs": [
        {
          "internalType": "bool",
          "name": "state",
          "type": "bool"
        },
        {
          "internalType": "address",
          "name": "pa_Id",
          "type": "address"
        },
        {
          "internalType": "string",
          "name": "pa_Name",
          "type": "string"
        },
        {
          "internalType": "string",
          "name": "pa_phone_Number",
          "type": "string"
        },
        {
          "internalType": "string",
          "name": "pa_blood_type",
          "type": "string"
        },
        {
          "internalType": "uint256",
          "name": "pa_date_of_birth",
          "type": "uint256"
        }
      ],
      "stateMutability": "view",
      "type": "function",
      "constant": true
    },
    {
      "inputs": [
        {
          "internalType": "uint256",
          "name": "",
          "type": "uint256"
        }
      ],
      "name": "PatientList",
      "outputs": [
        {
          "internalType": "bool",
          "name": "state",
          "type": "bool"
        },
        {
          "internalType": "address",
          "name": "pa_Id",
          "type": "address"
        },
        {
          "internalType": "string",
          "name": "pa_Name",
          "type": "string"
        },
        {
          "internalType": "string",
          "name": "pa_phone_Number",
          "type": "string"
        },
        {
          "internalType": "string",
          "name": "pa_blood_type",
          "type": "string"
        },
        {
          "internalType": "uint256",
          "name": "pa_date_of_birth",
          "type": "uint256"
        }
      ],
      "stateMutability": "view",
      "type": "function",
      "constant": true
    },
    {
      "inputs": [
        {
          "internalType": "address",
          "name": "",
          "type": "address"
        }
      ],
      "name": "UniversityInfo",
      "outputs": [
        {
          "internalType": "address",
          "name": "_uId",
          "type": "address"
        },
        {
          "internalType": "string",
          "name": "name",
          "type": "string"
        },
        {
          "internalType": "string",
          "name": "president",
          "type": "string"
        },
        {
          "internalType": "string",
          "name": "region",
          "type": "string"
        }
      ],
      "stateMutability": "view",
      "type": "function",
      "constant": true
    },
    {
      "inputs": [
        {
          "internalType": "uint256",
          "name": "",
          "type": "uint256"
        }
      ],
      "name": "UniversityList",
      "outputs": [
        {
          "internalType": "address",
          "name": "_uId",
          "type": "address"
        },
        {
          "internalType": "string",
          "name": "name",
          "type": "string"
        },
        {
          "internalType": "string",
          "name": "president",
          "type": "string"
        },
        {
          "internalType": "string",
          "name": "region",
          "type": "string"
        }
      ],
      "stateMutability": "view",
      "type": "function",
      "constant": true
    },
    {
      "inputs": [],
      "name": "doctorCount",
      "outputs": [
        {
          "internalType": "uint256",
          "name": "",
          "type": "uint256"
        }
      ],
      "stateMutability": "view",
      "type": "function",
      "constant": true
    },
    {
      "inputs": [],
      "name": "healthinfoCount",
      "outputs": [
        {
          "internalType": "uint256",
          "name": "",
          "type": "uint256"
        }
      ],
      "stateMutability": "view",
      "type": "function",
      "constant": true
    },
    {
      "inputs": [],
      "name": "patientCount",
      "outputs": [
        {
          "internalType": "uint256",
          "name": "",
          "type": "uint256"
        }
      ],
      "stateMutability": "view",
      "type": "function",
      "constant": true
    },
    {
      "inputs": [],
      "name": "patientToDoctorCount",
      "outputs": [
        {
          "internalType": "uint256",
          "name": "",
          "type": "uint256"
        }
      ],
      "stateMutability": "view",
      "type": "function",
      "constant": true
    },
    {
      "inputs": [],
      "name": "universityCount",
      "outputs": [
        {
          "internalType": "uint256",
          "name": "",
          "type": "uint256"
        }
      ],
      "stateMutability": "view",
      "type": "function",
      "constant": true
    },
    {
      "inputs": [
        {
          "internalType": "address",
          "name": "_drId",
          "type": "address"
        },
        {
          "internalType": "string",
          "name": "_name",
          "type": "string"
        },
        {
          "internalType": "string",
          "name": "_phone_Number",
          "type": "string"
        },
        {
          "internalType": "string",
          "name": "_speciality",
          "type": "string"
        },
        {
          "internalType": "uint256",
          "name": "_date_of_birth",
          "type": "uint256"
        }
      ],
      "name": "setDoctorDetails",
      "outputs": [],
      "stateMutability": "nonpayable",
      "type": "function"
    },
    {
      "inputs": [
        {
          "internalType": "address",
          "name": "_Id",
          "type": "address"
        }
      ],
      "name": "getDoctorDetails",
      "outputs": [
        {
          "internalType": "bool",
          "name": "_state",
          "type": "bool"
        },
        {
          "internalType": "address",
          "name": "_drId",
          "type": "address"
        },
        {
          "internalType": "string",
          "name": "_name",
          "type": "string"
        },
        {
          "internalType": "string",
          "name": "_phone_Number",
          "type": "string"
        },
        {
          "internalType": "string",
          "name": "_speciality",
          "type": "string"
        },
        {
          "internalType": "uint256",
          "name": "_date_of_birth",
          "type": "uint256"
        }
      ],
      "stateMutability": "view",
      "type": "function",
      "constant": true
    },
    {
      "inputs": [
        {
          "internalType": "string",
          "name": "_paName",
          "type": "string"
        },
        {
          "internalType": "address",
          "name": "_paId",
          "type": "address"
        },
        {
          "internalType": "string",
          "name": "_prescription",
          "type": "string"
        },
        {
          "internalType": "string",
          "name": "_symptom",
          "type": "string"
        },
        {
          "internalType": "string",
          "name": "_paRecords",
          "type": "string"
        }
      ],
      "name": "setHealthRecordsDetails",
      "outputs": [],
      "stateMutability": "nonpayable",
      "type": "function"
    },
    {
      "inputs": [
        {
          "internalType": "address",
          "name": "_paId",
          "type": "address"
        },
        {
          "internalType": "string",
          "name": "_paName",
          "type": "string"
        },
        {
          "internalType": "string",
          "name": "_paPhoneNumber",
          "type": "string"
        },
        {
          "internalType": "string",
          "name": "_paBloodType",
          "type": "string"
        },
        {
          "internalType": "uint256",
          "name": "_paDateOfBirth",
          "type": "uint256"
        }
      ],
      "name": "setPatientDetails",
      "outputs": [],
      "stateMutability": "nonpayable",
      "type": "function"
    },
    {
      "inputs": [
        {
          "internalType": "address",
          "name": "_Id",
          "type": "address"
        }
      ],
      "name": "getPatientDetails",
      "outputs": [
        {
          "internalType": "bool",
          "name": "_state",
          "type": "bool"
        },
        {
          "internalType": "address",
          "name": "_paId",
          "type": "address"
        },
        {
          "internalType": "string",
          "name": "_paName",
          "type": "string"
        },
        {
          "internalType": "string[]",
          "name": "_paRecords",
          "type": "string[]"
        },
        {
          "internalType": "string",
          "name": "_paPhoneNumber",
          "type": "string"
        },
        {
          "internalType": "string",
          "name": "_paBloodType",
          "type": "string"
        },
        {
          "internalType": "uint256",
          "name": "_paDateOfBirth",
          "type": "uint256"
        }
      ],
      "stateMutability": "view",
      "type": "function",
      "constant": true
    },
    {
      "inputs": [
        {
          "internalType": "uint256",
          "name": "_Id",
          "type": "uint256"
        }
      ],
      "name": "getPatientDetailsById",
      "outputs": [
        {
          "internalType": "bool",
          "name": "_state",
          "type": "bool"
        },
        {
          "internalType": "address",
          "name": "_paId",
          "type": "address"
        },
        {
          "internalType": "string",
          "name": "_paName",
          "type": "string"
        },
        {
          "internalType": "string[]",
          "name": "_paRecords",
          "type": "string[]"
        },
        {
          "internalType": "string",
          "name": "_paPhoneNumber",
          "type": "string"
        },
        {
          "internalType": "string",
          "name": "_paBloodType",
          "type": "string"
        },
        {
          "internalType": "uint256",
          "name": "_paDateOfBirth",
          "type": "uint256"
        }
      ],
      "stateMutability": "view",
      "type": "function",
      "constant": true
    },
    {
      "inputs": [
        {
          "internalType": "address",
          "name": "_dr",
          "type": "address"
        }
      ],
      "name": "getHealthRecords",
      "outputs": [
        {
          "internalType": "string",
          "name": "_drName",
          "type": "string"
        },
        {
          "internalType": "address",
          "name": "_drId",
          "type": "address"
        },
        {
          "internalType": "string",
          "name": "_paName",
          "type": "string"
        },
        {
          "internalType": "address",
          "name": "_paId",
          "type": "address"
        },
        {
          "internalType": "string",
          "name": "_prescription",
          "type": "string"
        },
        {
          "components": [
            {
              "internalType": "string",
              "name": "symptom",
              "type": "string"
            },
            {
              "internalType": "string",
              "name": "prescription",
              "type": "string"
            }
          ],
          "internalType": "struct MedicalChain.PrescriptionDetails[]",
          "name": "_rec",
          "type": "tuple[]"
        }
      ],
      "stateMutability": "view",
      "type": "function",
      "constant": true
    },
    {
      "inputs": [
        {
          "internalType": "address",
          "name": "doctor_id",
          "type": "address"
        },
        {
          "internalType": "uint256",
          "name": "access",
          "type": "uint256"
        }
      ],
      "name": "grantAccessToDoctor",
      "outputs": [],
      "stateMutability": "nonpayable",
      "type": "function"
    },
    {
      "inputs": [
        {
          "internalType": "address",
          "name": "_paId",
          "type": "address"
        }
      ],
      "name": "getHealthRecordsForDoctor",
      "outputs": [
        {
          "internalType": "string",
          "name": "_drName",
          "type": "string"
        },
        {
          "internalType": "address",
          "name": "_drId",
          "type": "address"
        },
        {
          "internalType": "string",
          "name": "_paName",
          "type": "string"
        },
        {
          "internalType": "address",
          "name": "_pId",
          "type": "address"
        },
        {
          "internalType": "string",
          "name": "_prescription",
          "type": "string"
        },
        {
          "components": [
            {
              "internalType": "string",
              "name": "symptom",
              "type": "string"
            },
            {
              "internalType": "string",
              "name": "prescription",
              "type": "string"
            }
          ],
          "internalType": "struct MedicalChain.PrescriptionDetails[]",
          "name": "_rec",
          "type": "tuple[]"
        }
      ],
      "stateMutability": "view",
      "type": "function",
      "constant": true
    },
    {
      "inputs": [
        {
          "internalType": "address",
          "name": "_uId",
          "type": "address"
        },
        {
          "internalType": "string",
          "name": "_name",
          "type": "string"
        },
        {
          "internalType": "string",
          "name": "_president",
          "type": "string"
        },
        {
          "internalType": "string",
          "name": "_region",
          "type": "string"
        }
      ],
      "name": "setUniversities",
      "outputs": [],
      "stateMutability": "nonpayable",
      "type": "function"
    },
    {
      "inputs": [
        {
          "internalType": "address",
          "name": "_uId",
          "type": "address"
        }
      ],
      "name": "getUniversities",
      "outputs": [
        {
          "internalType": "string",
          "name": "_uniName",
          "type": "string"
        },
        {
          "internalType": "string",
          "name": "_uniPresident",
          "type": "string"
        },
        {
          "internalType": "string",
          "name": "_uniRegion",
          "type": "string"
        }
      ],
      "stateMutability": "nonpayable",
      "type": "function"
    },
    {
      "inputs": [
        {
          "internalType": "address",
          "name": "dr_Id",
          "type": "address"
        },
        {
          "internalType": "bool",
          "name": "state",
          "type": "bool"
        }
      ],
      "name": "updateDoctorState",
      "outputs": [
        {
          "internalType": "bool",
          "name": "_state",
          "type": "bool"
        }
      ],
      "stateMutability": "nonpayable",
      "type": "function"
    }
  ],
  "bytecode": "0x608060405234801561001057600080fd5b5033600d60006101000a81548173ffffffffffffffffffffffffffffffffffffffff021916908373ffffffffffffffffffffffffffffffffffffffff160217905550615500806100616000396000f3fe608060405234801561001057600080fd5b50600436106101585760003560e01c80639fcbeca3116100c3578063defbca0f1161007c578063defbca0f1461047d578063ec218c6514610499578063efe2ccc1146104b5578063f83009ba146104eb578063fab3cb1914610520578063fbb2e4e61461053e57610158565b80639fcbeca314610370578063a0303c41146103a6578063b1d00841146103c4578063b25afeb3146103e0578063bab90dbd14610412578063d3ff82391461044757610158565b80635c2f8fb4116101155780635c2f8fb414610267578063643da5511461029a5780637827c01a146102cd57806378522bc4146103025780639645f461146103205780639a639a051461035257610158565b80631ce8e4551461015d57806323e1e91a1461019257806330fa3e60146101c25780633a722271146101f7578063418374f31461022d578063506f17731461024b575b600080fd5b6101776004803603810190610172919061460d565b61055a565b6040516101899695949392919061473e565b60405180910390f35b6101ac60048036038101906101a7919061480c565b61075b565b6040516101b9919061484c565b60405180910390f35b6101dc60048036038101906101d79190614867565b6107c0565b6040516101ee9695949392919061473e565b60405180910390f35b610211600480360381019061020c919061460d565b6109c1565b6040516102249796959493929190614894565b60405180910390f35b610235610be8565b6040516102429190614918565b60405180910390f35b61026560048036038101906102609190614933565b610bee565b005b610281600480360381019061027c919061460d565b610cac565b6040516102919493929190614973565b60405180910390f35b6102b460048036038101906102af9190614867565b610e94565b6040516102c49493929190614973565b60405180910390f35b6102e760048036038101906102e29190614867565b61107c565b6040516102f996959493929190614b1d565b60405180910390f35b61030a6116fc565b6040516103179190614918565b60405180910390f35b61033a60048036038101906103359190614b9a565b611702565b60405161034993929190614e68565b60405180910390f35b61035a611e0c565b6040516103679190614918565b60405180910390f35b61038a60048036038101906103859190614867565b611e12565b60405161039d9796959493929190614894565b60405180910390f35b6103ae612039565b6040516103bb9190614918565b60405180910390f35b6103de60048036038101906103d99190614fe9565b61203f565b005b6103fa60048036038101906103f59190614867565b612263565b604051610409939291906150a4565b60405180910390f35b61042c60048036038101906104279190614867565b6124d6565b60405161043e9695949392919061473e565b60405180910390f35b610461600480360381019061045c919061460d565b612846565b6040516104749796959493929190615176565b60405180910390f35b61049760048036038101906104929190615201565b612b9f565b005b6104b360048036038101906104ae91906152d0565b612f34565b005b6104cf60048036038101906104ca9190614867565b6135dc565b6040516104e29796959493929190615176565b60405180910390f35b61050560048036038101906105009190614867565b613a69565b60405161051796959493929190614b1d565b60405180910390f35b6105286140e9565b6040516105359190614918565b60405180910390f35b61055860048036038101906105539190615201565b6140ef565b005b60036020528060005260406000206000915090508060000160009054906101000a900460ff16908060000160019054906101000a900473ffffffffffffffffffffffffffffffffffffffff16908060010180546105b6906153ea565b80601f01602080910402602001604051908101604052809291908181526020018280546105e2906153ea565b801561062f5780601f106106045761010080835404028352916020019161062f565b820191906000526020600020905b81548152906001019060200180831161061257829003601f168201915b505050505090806003018054610644906153ea565b80601f0160208091040260200160405190810160405280929190818152602001828054610670906153ea565b80156106bd5780601f10610692576101008083540402835291602001916106bd565b820191906000526020600020905b8154815290600101906020018083116106a057829003601f168201915b5050505050908060040180546106d2906153ea565b80601f01602080910402602001604051908101604052809291908181526020018280546106fe906153ea565b801561074b5780601f106107205761010080835404028352916020019161074b565b820191906000526020600020905b81548152906001019060200180831161072e57829003601f168201915b5050505050908060050154905086565b6000816000808573ffffffffffffffffffffffffffffffffffffffff1673ffffffffffffffffffffffffffffffffffffffff16815260200190815260200160002060000160006101000a81548160ff0219169083151502179055506001905092915050565b60026020528060005260406000206000915090508060000160009054906101000a900460ff16908060000160019054906101000a900473ffffffffffffffffffffffffffffffffffffffff169080600101805461081c906153ea565b80601f0160208091040260200160405190810160405280929190818152602001828054610848906153ea565b80156108955780601f1061086a57610100808354040283529160200191610895565b820191906000526020600020905b81548152906001019060200180831161087857829003601f168201915b5050505050908060030180546108aa906153ea565b80601f01602080910402602001604051908101604052809291908181526020018280546108d6906153ea565b80156109235780601f106108f857610100808354040283529160200191610923565b820191906000526020600020905b81548152906001019060200180831161090657829003601f168201915b505050505090806004018054610938906153ea565b80601f0160208091040260200160405190810160405280929190818152602001828054610964906153ea565b80156109b15780601f10610986576101008083540402835291602001916109b1565b820191906000526020600020905b81548152906001019060200180831161099457829003601f168201915b5050505050908060050154905086565b60016020528060005260406000206000915090508060000160009054906101000a900460ff16908060000160019054906101000a900473ffffffffffffffffffffffffffffffffffffffff1690806001018054610a1d906153ea565b80601f0160208091040260200160405190810160405280929190818152602001828054610a49906153ea565b8015610a965780601f10610a6b57610100808354040283529160200191610a96565b820191906000526020600020905b815481529060010190602001808311610a7957829003601f168201915b505050505090806002018054610aab906153ea565b80601f0160208091040260200160405190810160405280929190818152602001828054610ad7906153ea565b8015610b245780601f10610af957610100808354040283529160200191610b24565b820191906000526020600020905b815481529060010190602001808311610b0757829003601f168201915b505050505090806003018054610b39906153ea565b80601f0160208091040260200160405190810160405280929190818152602001828054610b65906153ea565b8015610bb25780601f10610b8757610100808354040283529160200191610bb2565b820191906000526020600020905b815481529060010190602001808311610b9557829003601f168201915b5050505050908060040154908060050160009054906101000a900473ffffffffffffffffffffffffffffffffffffffff16905087565b600b5481565b80600560003373ffffffffffffffffffffffffffffffffffffffff1673ffffffffffffffffffffffffffffffffffffffff16815260200190815260200160002060008473ffffffffffffffffffffffffffffffffffffffff1673ffffffffffffffffffffffffffffffffffffffff168152602001908152602001600020819055507f19dd02d0615ff9058c55159271b51d3d8ead87b40cc392e6dbeca6483cff33338233604051610ca092919061541c565b60405180910390a15050565b60076020528060005260406000206000915090508060000160009054906101000a900473ffffffffffffffffffffffffffffffffffffffff1690806001018054610cf5906153ea565b80601f0160208091040260200160405190810160405280929190818152602001828054610d21906153ea565b8015610d6e5780601f10610d4357610100808354040283529160200191610d6e565b820191906000526020600020905b815481529060010190602001808311610d5157829003601f168201915b505050505090806002018054610d83906153ea565b80601f0160208091040260200160405190810160405280929190818152602001828054610daf906153ea565b8015610dfc5780601f10610dd157610100808354040283529160200191610dfc565b820191906000526020600020905b815481529060010190602001808311610ddf57829003601f168201915b505050505090806003018054610e11906153ea565b80601f0160208091040260200160405190810160405280929190818152602001828054610e3d906153ea565b8015610e8a5780601f10610e5f57610100808354040283529160200191610e8a565b820191906000526020600020905b815481529060010190602001808311610e6d57829003601f168201915b5050505050905084565b60066020528060005260406000206000915090508060000160009054906101000a900473ffffffffffffffffffffffffffffffffffffffff1690806001018054610edd906153ea565b80601f0160208091040260200160405190810160405280929190818152602001828054610f09906153ea565b8015610f565780601f10610f2b57610100808354040283529160200191610f56565b820191906000526020600020905b815481529060010190602001808311610f3957829003601f168201915b505050505090806002018054610f6b906153ea565b80601f0160208091040260200160405190810160405280929190818152602001828054610f97906153ea565b8015610fe45780601f10610fb957610100808354040283529160200191610fe4565b820191906000526020600020905b815481529060010190602001808311610fc757829003601f168201915b505050505090806003018054610ff9906153ea565b80601f0160208091040260200160405190810160405280929190818152602001828054611025906153ea565b80156110725780601f1061104757610100808354040283529160200191611072565b820191906000526020600020905b81548152906001019060200180831161105557829003601f168201915b5050505050905084565b6060600060606000606080600460008873ffffffffffffffffffffffffffffffffffffffff1673ffffffffffffffffffffffffffffffffffffffff16815260200190815260200160002060003373ffffffffffffffffffffffffffffffffffffffff1673ffffffffffffffffffffffffffffffffffffffff1681526020019081526020016000206000016001018054611114906153ea565b80601f0160208091040260200160405190810160405280929190818152602001828054611140906153ea565b801561118d5780601f106111625761010080835404028352916020019161118d565b820191906000526020600020905b81548152906001019060200180831161117057829003601f168201915b50505050509550600460008873ffffffffffffffffffffffffffffffffffffffff1673ffffffffffffffffffffffffffffffffffffffff16815260200190815260200160002060003373ffffffffffffffffffffffffffffffffffffffff1673ffffffffffffffffffffffffffffffffffffffff16815260200190815260200160002060000160000160019054906101000a900473ffffffffffffffffffffffffffffffffffffffff169450600460008873ffffffffffffffffffffffffffffffffffffffff1673ffffffffffffffffffffffffffffffffffffffff16815260200190815260200160002060003373ffffffffffffffffffffffffffffffffffffffff1673ffffffffffffffffffffffffffffffffffffffff16815260200190815260200160002060060160010180546112c6906153ea565b80601f01602080910402602001604051908101604052809291908181526020018280546112f2906153ea565b801561133f5780601f106113145761010080835404028352916020019161133f565b820191906000526020600020905b81548152906001019060200180831161132257829003601f168201915b50505050509350600460008873ffffffffffffffffffffffffffffffffffffffff1673ffffffffffffffffffffffffffffffffffffffff16815260200190815260200160002060003373ffffffffffffffffffffffffffffffffffffffff1673ffffffffffffffffffffffffffffffffffffffff16815260200190815260200160002060060160000160019054906101000a900473ffffffffffffffffffffffffffffffffffffffff169250600460008873ffffffffffffffffffffffffffffffffffffffff1673ffffffffffffffffffffffffffffffffffffffff16815260200190815260200160002060003373ffffffffffffffffffffffffffffffffffffffff1673ffffffffffffffffffffffffffffffffffffffff168152602001908152602001600020600c016001018054611478906153ea565b80601f01602080910402602001604051908101604052809291908181526020018280546114a4906153ea565b80156114f15780601f106114c6576101008083540402835291602001916114f1565b820191906000526020600020905b8154815290600101906020018083116114d457829003601f168201915b50505050509150600460008873ffffffffffffffffffffffffffffffffffffffff1673ffffffffffffffffffffffffffffffffffffffff16815260200190815260200160002060003373ffffffffffffffffffffffffffffffffffffffff1673ffffffffffffffffffffffffffffffffffffffff168152602001908152602001600020600e01805480602002602001604051908101604052809291908181526020016000905b828210156116ed57838290600052602060002090600202016040518060400160405290816000820180546115ca906153ea565b80601f01602080910402602001604051908101604052809291908181526020018280546115f6906153ea565b80156116435780601f1061161857610100808354040283529160200191611643565b820191906000526020600020905b81548152906001019060200180831161162657829003601f168201915b5050505050815260200160018201805461165c906153ea565b80601f0160208091040260200160405190810160405280929190818152602001828054611688906153ea565b80156116d55780601f106116aa576101008083540402835291602001916116d5565b820191906000526020600020905b8154815290600101906020018083116116b857829003601f168201915b50505050508152505081526020019060010190611597565b50505050905091939550919395565b60085481565b600460205281600052604060002060205280600052604060002060009150915050806000016040518060e00160405290816000820160009054906101000a900460ff161515151581526020016000820160019054906101000a900473ffffffffffffffffffffffffffffffffffffffff1673ffffffffffffffffffffffffffffffffffffffff1673ffffffffffffffffffffffffffffffffffffffff1681526020016001820180546117b3906153ea565b80601f01602080910402602001604051908101604052809291908181526020018280546117df906153ea565b801561182c5780601f106118015761010080835404028352916020019161182c565b820191906000526020600020905b81548152906001019060200180831161180f57829003601f168201915b50505050508152602001600282018054611845906153ea565b80601f0160208091040260200160405190810160405280929190818152602001828054611871906153ea565b80156118be5780601f10611893576101008083540402835291602001916118be565b820191906000526020600020905b8154815290600101906020018083116118a157829003601f168201915b505050505081526020016003820180546118d7906153ea565b80601f0160208091040260200160405190810160405280929190818152602001828054611903906153ea565b80156119505780601f1061192557610100808354040283529160200191611950565b820191906000526020600020905b81548152906001019060200180831161193357829003601f168201915b50505050508152602001600482015481526020016005820160009054906101000a900473ffffffffffffffffffffffffffffffffffffffff1673ffffffffffffffffffffffffffffffffffffffff1673ffffffffffffffffffffffffffffffffffffffff168152505090806006016040518060e00160405290816000820160009054906101000a900460ff161515151581526020016000820160019054906101000a900473ffffffffffffffffffffffffffffffffffffffff1673ffffffffffffffffffffffffffffffffffffffff1673ffffffffffffffffffffffffffffffffffffffff168152602001600182018054611a4a906153ea565b80601f0160208091040260200160405190810160405280929190818152602001828054611a76906153ea565b8015611ac35780601f10611a9857610100808354040283529160200191611ac3565b820191906000526020600020905b815481529060010190602001808311611aa657829003601f168201915b5050505050815260200160028201805480602002602001604051908101604052809291908181526020016000905b82821015611b9d578382906000526020600020018054611b10906153ea565b80601f0160208091040260200160405190810160405280929190818152602001828054611b3c906153ea565b8015611b895780601f10611b5e57610100808354040283529160200191611b89565b820191906000526020600020905b815481529060010190602001808311611b6c57829003601f168201915b505050505081526020019060010190611af1565b505050508152602001600382018054611bb5906153ea565b80601f0160208091040260200160405190810160405280929190818152602001828054611be1906153ea565b8015611c2e5780601f10611c0357610100808354040283529160200191611c2e565b820191906000526020600020905b815481529060010190602001808311611c1157829003601f168201915b50505050508152602001600482018054611c47906153ea565b80601f0160208091040260200160405190810160405280929190818152602001828054611c73906153ea565b8015611cc05780601f10611c9557610100808354040283529160200191611cc0565b820191906000526020600020905b815481529060010190602001808311611ca357829003601f168201915b505050505081526020016005820154815250509080600c01604051806040016040529081600082018054611cf3906153ea565b80601f0160208091040260200160405190810160405280929190818152602001828054611d1f906153ea565b8015611d6c5780601f10611d4157610100808354040283529160200191611d6c565b820191906000526020600020905b815481529060010190602001808311611d4f57829003601f168201915b50505050508152602001600182018054611d85906153ea565b80601f0160208091040260200160405190810160405280929190818152602001828054611db1906153ea565b8015611dfe5780601f10611dd357610100808354040283529160200191611dfe565b820191906000526020600020905b815481529060010190602001808311611de157829003601f168201915b505050505081525050905083565b600c5481565b60006020528060005260406000206000915090508060000160009054906101000a900460ff16908060000160019054906101000a900473ffffffffffffffffffffffffffffffffffffffff1690806001018054611e6e906153ea565b80601f0160208091040260200160405190810160405280929190818152602001828054611e9a906153ea565b8015611ee75780601f10611ebc57610100808354040283529160200191611ee7565b820191906000526020600020905b815481529060010190602001808311611eca57829003601f168201915b505050505090806002018054611efc906153ea565b80601f0160208091040260200160405190810160405280929190818152602001828054611f28906153ea565b8015611f755780601f10611f4a57610100808354040283529160200191611f75565b820191906000526020600020905b815481529060010190602001808311611f5857829003601f168201915b505050505090806003018054611f8a906153ea565b80601f0160208091040260200160405190810160405280929190818152602001828054611fb6906153ea565b80156120035780601f10611fd857610100808354040283529160200191612003565b820191906000526020600020905b815481529060010190602001808311611fe657829003601f168201915b5050505050908060040154908060050160009054906101000a900473ffffffffffffffffffffffffffffffffffffffff16905087565b60095481565b6001600b60008282546120529190615474565b9250508190555060405180608001604052808573ffffffffffffffffffffffffffffffffffffffff16815260200184815260200183815260200182815250600660008673ffffffffffffffffffffffffffffffffffffffff1673ffffffffffffffffffffffffffffffffffffffff16815260200190815260200160002060008201518160000160006101000a81548173ffffffffffffffffffffffffffffffffffffffff021916908373ffffffffffffffffffffffffffffffffffffffff16021790555060208201518160010190805190602001906121329291906143cf565b50604082015181600201908051906020019061214f9291906143cf565b50606082015181600301908051906020019061216c9291906143cf565b5090505060405180608001604052808573ffffffffffffffffffffffffffffffffffffffff1681526020018481526020018381526020018281525060076000600b54815260200190815260200160002060008201518160000160006101000a81548173ffffffffffffffffffffffffffffffffffffffff021916908373ffffffffffffffffffffffffffffffffffffffff160217905550602082015181600101908051906020019061221f9291906143cf565b50604082015181600201908051906020019061223c9291906143cf565b5060608201518160030190805190602001906122599291906143cf565b5090505050505050565b6060806060600660008573ffffffffffffffffffffffffffffffffffffffff1673ffffffffffffffffffffffffffffffffffffffff16815260200190815260200160002060010180546122b5906153ea565b80601f01602080910402602001604051908101604052809291908181526020018280546122e1906153ea565b801561232e5780601f106123035761010080835404028352916020019161232e565b820191906000526020600020905b81548152906001019060200180831161231157829003601f168201915b50505050509250600660008573ffffffffffffffffffffffffffffffffffffffff1673ffffffffffffffffffffffffffffffffffffffff1681526020019081526020016000206002018054612382906153ea565b80601f01602080910402602001604051908101604052809291908181526020018280546123ae906153ea565b80156123fb5780601f106123d0576101008083540402835291602001916123fb565b820191906000526020600020905b8154815290600101906020018083116123de57829003601f168201915b50505050509150600660008573ffffffffffffffffffffffffffffffffffffffff1673ffffffffffffffffffffffffffffffffffffffff168152602001908152602001600020600301805461244f906153ea565b80601f016020809104026020016040519081016040528092919081815260200182805461247b906153ea565b80156124c85780601f1061249d576101008083540402835291602001916124c8565b820191906000526020600020905b8154815290600101906020018083116124ab57829003601f168201915b505050505090509193909250565b600080606080606060008060008873ffffffffffffffffffffffffffffffffffffffff1673ffffffffffffffffffffffffffffffffffffffff16815260200190815260200160002060000160009054906101000a900460ff1695506000808873ffffffffffffffffffffffffffffffffffffffff1673ffffffffffffffffffffffffffffffffffffffff16815260200190815260200160002060000160019054906101000a900473ffffffffffffffffffffffffffffffffffffffff1694506000808873ffffffffffffffffffffffffffffffffffffffff1673ffffffffffffffffffffffffffffffffffffffff16815260200190815260200160002060010180546125e1906153ea565b80601f016020809104026020016040519081016040528092919081815260200182805461260d906153ea565b801561265a5780601f1061262f5761010080835404028352916020019161265a565b820191906000526020600020905b81548152906001019060200180831161263d57829003601f168201915b505050505093506000808873ffffffffffffffffffffffffffffffffffffffff1673ffffffffffffffffffffffffffffffffffffffff16815260200190815260200160002060020180546126ad906153ea565b80601f01602080910402602001604051908101604052809291908181526020018280546126d9906153ea565b80156127265780601f106126fb57610100808354040283529160200191612726565b820191906000526020600020905b81548152906001019060200180831161270957829003601f168201915b505050505092506000808873ffffffffffffffffffffffffffffffffffffffff1673ffffffffffffffffffffffffffffffffffffffff1681526020019081526020016000206003018054612779906153ea565b80601f01602080910402602001604051908101604052809291908181526020018280546127a5906153ea565b80156127f25780601f106127c7576101008083540402835291602001916127f2565b820191906000526020600020905b8154815290600101906020018083116127d557829003601f168201915b505050505091506000808873ffffffffffffffffffffffffffffffffffffffff1673ffffffffffffffffffffffffffffffffffffffff16815260200190815260200160002060040154905091939550919395565b60008060608060608060006003600089815260200190815260200160002060000160009054906101000a900460ff1696506003600089815260200190815260200160002060000160019054906101000a900473ffffffffffffffffffffffffffffffffffffffff1695506003600089815260200190815260200160002060010180546128d1906153ea565b80601f01602080910402602001604051908101604052809291908181526020018280546128fd906153ea565b801561294a5780601f1061291f5761010080835404028352916020019161294a565b820191906000526020600020905b81548152906001019060200180831161292d57829003601f168201915b5050505050945060036000898152602001908152602001600020600201805480602002602001604051908101604052809291908181526020016000905b82821015612a335783829060005260206000200180546129a6906153ea565b80601f01602080910402602001604051908101604052809291908181526020018280546129d2906153ea565b8015612a1f5780601f106129f457610100808354040283529160200191612a1f565b820191906000526020600020905b815481529060010190602001808311612a0257829003601f168201915b505050505081526020019060010190612987565b505050509350600360008981526020019081526020016000206003018054612a5a906153ea565b80601f0160208091040260200160405190810160405280929190818152602001828054612a86906153ea565b8015612ad35780601f10612aa857610100808354040283529160200191612ad3565b820191906000526020600020905b815481529060010190602001808311612ab657829003601f168201915b50505050509250600360008981526020019081526020016000206004018054612afb906153ea565b80601f0160208091040260200160405190810160405280929190818152602001828054612b27906153ea565b8015612b745780601f10612b4957610100808354040283529160200191612b74565b820191906000526020600020905b815481529060010190602001808311612b5757829003601f168201915b5050505050915060036000898152602001908152602001600020600501549050919395979092949650565b600160086000828254612bb29190615474565b925050819055506040518060e001604052806000151581526020018673ffffffffffffffffffffffffffffffffffffffff1681526020018581526020018481526020018381526020018281526020013373ffffffffffffffffffffffffffffffffffffffff168152506000808773ffffffffffffffffffffffffffffffffffffffff1673ffffffffffffffffffffffffffffffffffffffff16815260200190815260200160002060008201518160000160006101000a81548160ff02191690831515021790555060208201518160000160016101000a81548173ffffffffffffffffffffffffffffffffffffffff021916908373ffffffffffffffffffffffffffffffffffffffff1602179055506040820151816001019080519060200190612cdc9291906143cf565b506060820151816002019080519060200190612cf99291906143cf565b506080820151816003019080519060200190612d169291906143cf565b5060a0820151816004015560c08201518160050160006101000a81548173ffffffffffffffffffffffffffffffffffffffff021916908373ffffffffffffffffffffffffffffffffffffffff1602179055509050506040518060e001604052806000151581526020018673ffffffffffffffffffffffffffffffffffffffff1681526020018581526020018481526020018381526020018281526020013373ffffffffffffffffffffffffffffffffffffffff1681525060016000600854815260200190815260200160002060008201518160000160006101000a81548160ff02191690831515021790555060208201518160000160016101000a81548173ffffffffffffffffffffffffffffffffffffffff021916908373ffffffffffffffffffffffffffffffffffffffff1602179055506040820151816001019080519060200190612e659291906143cf565b506060820151816002019080519060200190612e829291906143cf565b506080820151816003019080519060200190612e9f9291906143cf565b5060a0820151816004015560c08201518160050160006101000a81548173ffffffffffffffffffffffffffffffffffffffff021916908373ffffffffffffffffffffffffffffffffffffffff1602179055509050507f83c041d3aeb1dcb1f28cb15e20bdfee5ed1ca3740e487f9cab72e13eeb8595053386604051612f2592919061541c565b60405180910390a15050505050565b6001600a6000828254612f479190615474565b925050819055506000803373ffffffffffffffffffffffffffffffffffffffff1673ffffffffffffffffffffffffffffffffffffffff168152602001908152602001600020600101600460003373ffffffffffffffffffffffffffffffffffffffff1673ffffffffffffffffffffffffffffffffffffffff16815260200190815260200160002060008673ffffffffffffffffffffffffffffffffffffffff1673ffffffffffffffffffffffffffffffffffffffff16815260200190815260200160002060000160010190805461301d906153ea565b613028929190614455565b506000803373ffffffffffffffffffffffffffffffffffffffff1673ffffffffffffffffffffffffffffffffffffffff16815260200190815260200160002060000160019054906101000a900473ffffffffffffffffffffffffffffffffffffffff16600460003373ffffffffffffffffffffffffffffffffffffffff1673ffffffffffffffffffffffffffffffffffffffff16815260200190815260200160002060008673ffffffffffffffffffffffffffffffffffffffff1673ffffffffffffffffffffffffffffffffffffffff16815260200190815260200160002060000160000160016101000a81548173ffffffffffffffffffffffffffffffffffffffff021916908373ffffffffffffffffffffffffffffffffffffffff1602179055506001600460003373ffffffffffffffffffffffffffffffffffffffff1673ffffffffffffffffffffffffffffffffffffffff16815260200190815260200160002060008673ffffffffffffffffffffffffffffffffffffffff1673ffffffffffffffffffffffffffffffffffffffff16815260200190815260200160002060060160000160006101000a81548160ff02191690831515021790555083600460003373ffffffffffffffffffffffffffffffffffffffff1673ffffffffffffffffffffffffffffffffffffffff16815260200190815260200160002060008673ffffffffffffffffffffffffffffffffffffffff1673ffffffffffffffffffffffffffffffffffffffff16815260200190815260200160002060060160000160016101000a81548173ffffffffffffffffffffffffffffffffffffffff021916908373ffffffffffffffffffffffffffffffffffffffff16021790555084600460003373ffffffffffffffffffffffffffffffffffffffff1673ffffffffffffffffffffffffffffffffffffffff16815260200190815260200160002060008673ffffffffffffffffffffffffffffffffffffffff1673ffffffffffffffffffffffffffffffffffffffff168152602001908152602001600020600601600101908051906020019061333d9291906143cf565b5082600460003373ffffffffffffffffffffffffffffffffffffffff1673ffffffffffffffffffffffffffffffffffffffff16815260200190815260200160002060008673ffffffffffffffffffffffffffffffffffffffff1673ffffffffffffffffffffffffffffffffffffffff168152602001908152602001600020600c0160010190805190602001906133d49291906143cf565b50600460003373ffffffffffffffffffffffffffffffffffffffff1673ffffffffffffffffffffffffffffffffffffffff16815260200190815260200160002060008573ffffffffffffffffffffffffffffffffffffffff1673ffffffffffffffffffffffffffffffffffffffff168152602001908152602001600020600e01604051806040016040528084815260200185815250908060018154018082558091505060019003906000526020600020906002020160009091909190915060008201518160000190805190602001906134ae9291906143cf565b5060208201518160010190805190602001906134cb9291906143cf565b505050600260008573ffffffffffffffffffffffffffffffffffffffff1673ffffffffffffffffffffffffffffffffffffffff168152602001908152602001600020600201819080600181540180825580915050600190039060005260206000200160009091909190915090805190602001906135499291906143cf565b506003600060095481526020019081526020016000206002018190806001815401808255809150506001900390600052602060002001600090919091909150908051906020019061359b9291906143cf565b507ffd09d3da0077a9ed9d4af05531b2f844c840c94c1e6535e3d2a09a6ae1aa9a5233856040516135cd92919061541c565b60405180910390a15050505050565b6000806060806060806000600260008973ffffffffffffffffffffffffffffffffffffffff1673ffffffffffffffffffffffffffffffffffffffff16815260200190815260200160002060000160009054906101000a900460ff169650600260008973ffffffffffffffffffffffffffffffffffffffff1673ffffffffffffffffffffffffffffffffffffffff16815260200190815260200160002060000160019054906101000a900473ffffffffffffffffffffffffffffffffffffffff169550600260008973ffffffffffffffffffffffffffffffffffffffff1673ffffffffffffffffffffffffffffffffffffffff16815260200190815260200160002060010180546136eb906153ea565b80601f0160208091040260200160405190810160405280929190818152602001828054613717906153ea565b80156137645780601f1061373957610100808354040283529160200191613764565b820191906000526020600020905b81548152906001019060200180831161374757829003601f168201915b50505050509450600260008973ffffffffffffffffffffffffffffffffffffffff1673ffffffffffffffffffffffffffffffffffffffff168152602001908152602001600020600201805480602002602001604051908101604052809291908181526020016000905b828210156138795783829060005260206000200180546137ec906153ea565b80601f0160208091040260200160405190810160405280929190818152602001828054613818906153ea565b80156138655780601f1061383a57610100808354040283529160200191613865565b820191906000526020600020905b81548152906001019060200180831161384857829003601f168201915b5050505050815260200190600101906137cd565b505050509350600260008973ffffffffffffffffffffffffffffffffffffffff1673ffffffffffffffffffffffffffffffffffffffff16815260200190815260200160002060030180546138cc906153ea565b80601f01602080910402602001604051908101604052809291908181526020018280546138f8906153ea565b80156139455780601f1061391a57610100808354040283529160200191613945565b820191906000526020600020905b81548152906001019060200180831161392857829003601f168201915b50505050509250600260008973ffffffffffffffffffffffffffffffffffffffff1673ffffffffffffffffffffffffffffffffffffffff1681526020019081526020016000206004018054613999906153ea565b80601f01602080910402602001604051908101604052809291908181526020018280546139c5906153ea565b8015613a125780601f106139e757610100808354040283529160200191613a12565b820191906000526020600020905b8154815290600101906020018083116139f557829003601f168201915b50505050509150600260008973ffffffffffffffffffffffffffffffffffffffff1673ffffffffffffffffffffffffffffffffffffffff168152602001908152602001600020600501549050919395979092949650565b6060600060606000606080600460003373ffffffffffffffffffffffffffffffffffffffff1673ffffffffffffffffffffffffffffffffffffffff16815260200190815260200160002060008873ffffffffffffffffffffffffffffffffffffffff1673ffffffffffffffffffffffffffffffffffffffff1681526020019081526020016000206000016001018054613b01906153ea565b80601f0160208091040260200160405190810160405280929190818152602001828054613b2d906153ea565b8015613b7a5780601f10613b4f57610100808354040283529160200191613b7a565b820191906000526020600020905b815481529060010190602001808311613b5d57829003601f168201915b50505050509550600460003373ffffffffffffffffffffffffffffffffffffffff1673ffffffffffffffffffffffffffffffffffffffff16815260200190815260200160002060008873ffffffffffffffffffffffffffffffffffffffff1673ffffffffffffffffffffffffffffffffffffffff16815260200190815260200160002060000160000160019054906101000a900473ffffffffffffffffffffffffffffffffffffffff169450600460003373ffffffffffffffffffffffffffffffffffffffff1673ffffffffffffffffffffffffffffffffffffffff16815260200190815260200160002060008873ffffffffffffffffffffffffffffffffffffffff1673ffffffffffffffffffffffffffffffffffffffff1681526020019081526020016000206006016001018054613cb3906153ea565b80601f0160208091040260200160405190810160405280929190818152602001828054613cdf906153ea565b8015613d2c5780601f10613d0157610100808354040283529160200191613d2c565b820191906000526020600020905b815481529060010190602001808311613d0f57829003601f168201915b50505050509350600460003373ffffffffffffffffffffffffffffffffffffffff1673ffffffffffffffffffffffffffffffffffffffff16815260200190815260200160002060008873ffffffffffffffffffffffffffffffffffffffff1673ffffffffffffffffffffffffffffffffffffffff16815260200190815260200160002060060160000160019054906101000a900473ffffffffffffffffffffffffffffffffffffffff169250600460003373ffffffffffffffffffffffffffffffffffffffff1673ffffffffffffffffffffffffffffffffffffffff16815260200190815260200160002060008873ffffffffffffffffffffffffffffffffffffffff1673ffffffffffffffffffffffffffffffffffffffff168152602001908152602001600020600c016001018054613e65906153ea565b80601f0160208091040260200160405190810160405280929190818152602001828054613e91906153ea565b8015613ede5780601f10613eb357610100808354040283529160200191613ede565b820191906000526020600020905b815481529060010190602001808311613ec157829003601f168201915b50505050509150600460003373ffffffffffffffffffffffffffffffffffffffff1673ffffffffffffffffffffffffffffffffffffffff16815260200190815260200160002060008873ffffffffffffffffffffffffffffffffffffffff1673ffffffffffffffffffffffffffffffffffffffff168152602001908152602001600020600e01805480602002602001604051908101604052809291908181526020016000905b828210156140da5783829060005260206000209060020201604051806040016040529081600082018054613fb7906153ea565b80601f0160208091040260200160405190810160405280929190818152602001828054613fe3906153ea565b80156140305780601f1061400557610100808354040283529160200191614030565b820191906000526020600020905b81548152906001019060200180831161401357829003601f168201915b50505050508152602001600182018054614049906153ea565b80601f0160208091040260200160405190810160405280929190818152602001828054614075906153ea565b80156140c25780601f10614097576101008083540402835291602001916140c2565b820191906000526020600020905b8154815290600101906020018083116140a557829003601f168201915b50505050508152505081526020019060010190613f84565b50505050905091939550919395565b600a5481565b6001600960008282546141029190615474565b9250508190555060606040518060e001604052806001151581526020018773ffffffffffffffffffffffffffffffffffffffff16815260200186815260200182815260200185815260200184815260200183815250600260008873ffffffffffffffffffffffffffffffffffffffff1673ffffffffffffffffffffffffffffffffffffffff16815260200190815260200160002060008201518160000160006101000a81548160ff02191690831515021790555060208201518160000160016101000a81548173ffffffffffffffffffffffffffffffffffffffff021916908373ffffffffffffffffffffffffffffffffffffffff16021790555060408201518160010190805190602001906142199291906143cf565b5060608201518160020190805190602001906142369291906144e2565b5060808201518160030190805190602001906142539291906143cf565b5060a08201518160040190805190602001906142709291906143cf565b5060c082015181600501559050506040518060e001604052806001151581526020018773ffffffffffffffffffffffffffffffffffffffff1681526020018681526020018281526020018581526020018481526020018381525060036000600954815260200190815260200160002060008201518160000160006101000a81548160ff02191690831515021790555060208201518160000160016101000a81548173ffffffffffffffffffffffffffffffffffffffff021916908373ffffffffffffffffffffffffffffffffffffffff16021790555060408201518160010190805190602001906143629291906143cf565b50606082015181600201908051906020019061437f9291906144e2565b50608082015181600301908051906020019061439c9291906143cf565b5060a08201518160040190805190602001906143b99291906143cf565b5060c08201518160050155905050505050505050565b8280546143db906153ea565b90600052602060002090601f0160209004810192826143fd5760008555614444565b82601f1061441657805160ff1916838001178555614444565b82800160010185558215614444579182015b82811115614443578251825591602001919060010190614428565b5b5090506144519190614542565b5090565b828054614461906153ea565b90600052602060002090601f01602090048101928261448357600085556144d1565b82601f1061449457805485556144d1565b828001600101855582156144d157600052602060002091601f016020900482015b828111156144d05782548255916001019190600101906144b5565b5b5090506144de9190614542565b5090565b828054828255906000526020600020908101928215614531579160200282015b828111156145305782518290805190602001906145209291906143cf565b5091602001919060010190614502565b5b50905061453e919061455f565b5090565b5b8082111561455b576000816000905550600101614543565b5090565b5b8082111561457f57600081816145769190614583565b50600101614560565b5090565b50805461458f906153ea565b6000825580601f106145a157506145c0565b601f0160209004906000526020600020908101906145bf9190614542565b5b50565b6000604051905090565b600080fd5b600080fd5b6000819050919050565b6145ea816145d7565b81146145f557600080fd5b50565b600081359050614607816145e1565b92915050565b600060208284031215614623576146226145cd565b5b6000614631848285016145f8565b91505092915050565b60008115159050919050565b61464f8161463a565b82525050565b600073ffffffffffffffffffffffffffffffffffffffff82169050919050565b600061468082614655565b9050919050565b61469081614675565b82525050565b600081519050919050565b600082825260208201905092915050565b60005b838110156146d05780820151818401526020810190506146b5565b838111156146df576000848401525b50505050565b6000601f19601f8301169050919050565b600061470182614696565b61470b81856146a1565b935061471b8185602086016146b2565b614724816146e5565b840191505092915050565b614738816145d7565b82525050565b600060c0820190506147536000830189614646565b6147606020830188614687565b818103604083015261477281876146f6565b9050818103606083015261478681866146f6565b9050818103608083015261479a81856146f6565b90506147a960a083018461472f565b979650505050505050565b6147bd81614675565b81146147c857600080fd5b50565b6000813590506147da816147b4565b92915050565b6147e98161463a565b81146147f457600080fd5b50565b600081359050614806816147e0565b92915050565b60008060408385031215614823576148226145cd565b5b6000614831858286016147cb565b9250506020614842858286016147f7565b9150509250929050565b60006020820190506148616000830184614646565b92915050565b60006020828403121561487d5761487c6145cd565b5b600061488b848285016147cb565b91505092915050565b600060e0820190506148a9600083018a614646565b6148b66020830189614687565b81810360408301526148c881886146f6565b905081810360608301526148dc81876146f6565b905081810360808301526148f081866146f6565b90506148ff60a083018561472f565b61490c60c0830184614687565b98975050505050505050565b600060208201905061492d600083018461472f565b92915050565b6000806040838503121561494a576149496145cd565b5b6000614958858286016147cb565b9250506020614969858286016145f8565b9150509250929050565b60006080820190506149886000830187614687565b818103602083015261499a81866146f6565b905081810360408301526149ae81856146f6565b905081810360608301526149c281846146f6565b905095945050505050565b600081519050919050565b600082825260208201905092915050565b6000819050602082019050919050565b600082825260208201905092915050565b6000614a1582614696565b614a1f81856149f9565b9350614a2f8185602086016146b2565b614a38816146e5565b840191505092915050565b60006040830160008301518482036000860152614a608282614a0a565b91505060208301518482036020860152614a7a8282614a0a565b9150508091505092915050565b6000614a938383614a43565b905092915050565b6000602082019050919050565b6000614ab3826149cd565b614abd81856149d8565b935083602082028501614acf856149e9565b8060005b85811015614b0b5784840389528151614aec8582614a87565b9450614af783614a9b565b925060208a01995050600181019050614ad3565b50829750879550505050505092915050565b600060c0820190508181036000830152614b3781896146f6565b9050614b466020830188614687565b8181036040830152614b5881876146f6565b9050614b676060830186614687565b8181036080830152614b7981856146f6565b905081810360a0830152614b8d8184614aa8565b9050979650505050505050565b60008060408385031215614bb157614bb06145cd565b5b6000614bbf858286016147cb565b9250506020614bd0858286016147cb565b9150509250929050565b614be38161463a565b82525050565b614bf281614675565b82525050565b614c01816145d7565b82525050565b600060e083016000830151614c1f6000860182614bda565b506020830151614c326020860182614be9565b5060408301518482036040860152614c4a8282614a0a565b91505060608301518482036060860152614c648282614a0a565b91505060808301518482036080860152614c7e8282614a0a565b91505060a0830151614c9360a0860182614bf8565b5060c0830151614ca660c0860182614be9565b508091505092915050565b600081519050919050565b600082825260208201905092915050565b6000819050602082019050919050565b6000614ce98383614a0a565b905092915050565b6000602082019050919050565b6000614d0982614cb1565b614d138185614cbc565b935083602082028501614d2585614ccd565b8060005b85811015614d615784840389528151614d428582614cdd565b9450614d4d83614cf1565b925060208a01995050600181019050614d29565b50829750879550505050505092915050565b600060e083016000830151614d8b6000860182614bda565b506020830151614d9e6020860182614be9565b5060408301518482036040860152614db68282614a0a565b91505060608301518482036060860152614dd08282614cfe565b91505060808301518482036080860152614dea8282614a0a565b91505060a083015184820360a0860152614e048282614a0a565b91505060c0830151614e1960c0860182614bf8565b508091505092915050565b60006040830160008301518482036000860152614e418282614a0a565b91505060208301518482036020860152614e5b8282614a0a565b9150508091505092915050565b60006060820190508181036000830152614e828186614c07565b90508181036020830152614e968185614d73565b90508181036040830152614eaa8184614e24565b9050949350505050565b600080fd5b600080fd5b7f4e487b7100000000000000000000000000000000000000000000000000000000600052604160045260246000fd5b614ef6826146e5565b810181811067ffffffffffffffff82111715614f1557614f14614ebe565b5b80604052505050565b6000614f286145c3565b9050614f348282614eed565b919050565b600067ffffffffffffffff821115614f5457614f53614ebe565b5b614f5d826146e5565b9050602081019050919050565b82818337600083830152505050565b6000614f8c614f8784614f39565b614f1e565b905082815260208101848484011115614fa857614fa7614eb9565b5b614fb3848285614f6a565b509392505050565b600082601f830112614fd057614fcf614eb4565b5b8135614fe0848260208601614f79565b91505092915050565b60008060008060808587031215615003576150026145cd565b5b6000615011878288016147cb565b945050602085013567ffffffffffffffff811115615032576150316145d2565b5b61503e87828801614fbb565b935050604085013567ffffffffffffffff81111561505f5761505e6145d2565b5b61506b87828801614fbb565b925050606085013567ffffffffffffffff81111561508c5761508b6145d2565b5b61509887828801614fbb565b91505092959194509250565b600060608201905081810360008301526150be81866146f6565b905081810360208301526150d281856146f6565b905081810360408301526150e681846146f6565b9050949350505050565b600082825260208201905092915050565b600061510c82614cb1565b61511681856150f0565b93508360208202850161512885614ccd565b8060005b8581101561516457848403895281516151458582614cdd565b945061515083614cf1565b925060208a0199505060018101905061512c565b50829750879550505050505092915050565b600060e08201905061518b600083018a614646565b6151986020830189614687565b81810360408301526151aa81886146f6565b905081810360608301526151be8187615101565b905081810360808301526151d281866146f6565b905081810360a08301526151e681856146f6565b90506151f560c083018461472f565b98975050505050505050565b600080600080600060a0868803121561521d5761521c6145cd565b5b600061522b888289016147cb565b955050602086013567ffffffffffffffff81111561524c5761524b6145d2565b5b61525888828901614fbb565b945050604086013567ffffffffffffffff811115615279576152786145d2565b5b61528588828901614fbb565b935050606086013567ffffffffffffffff8111156152a6576152a56145d2565b5b6152b288828901614fbb565b92505060806152c3888289016145f8565b9150509295509295909350565b600080600080600060a086880312156152ec576152eb6145cd565b5b600086013567ffffffffffffffff81111561530a576153096145d2565b5b61531688828901614fbb565b9550506020615327888289016147cb565b945050604086013567ffffffffffffffff811115615348576153476145d2565b5b61535488828901614fbb565b935050606086013567ffffffffffffffff811115615375576153746145d2565b5b61538188828901614fbb565b925050608086013567ffffffffffffffff8111156153a2576153a16145d2565b5b6153ae88828901614fbb565b9150509295509295909350565b7f4e487b7100000000000000000000000000000000000000000000000000000000600052602260045260246000fd5b6000600282049050600182168061540257607f821691505b60208210811415615416576154156153bb565b5b50919050565b60006040820190506154316000830185614687565b61543e6020830184614687565b9392505050565b7f4e487b7100000000000000000000000000000000000000000000000000000000600052601160045260246000fd5b600061547f826145d7565b915061548a836145d7565b9250827fffffffffffffffffffffffffffffffffffffffffffffffffffffffffffffffff038211156154bf576154be615445565b5b82820190509291505056fea26469706673582212204bf940371b179f0172e364d44c267c6875c5332560e59b19a184a51fc5beb53664736f6c634300080a0033",
  "immutableReferences": {},
  "source": "pragma solidity >=0.4.22 <0.9.0;\n\ncontract MedicalChain{\n\n    mapping(address=>Doctor)public DoctorInfo;\n    mapping (uint => Doctor) public DoctorList;\n    mapping(address=>Patient) public PatientInfo;\n    mapping (uint=> Patient) public PatientList;\n    mapping(address=> mapping(address => HealthRecords))public HealthInfo;\n    mapping (address => mapping (address => uint)) private patientToDoctor;\n    mapping(address => Universities)public UniversityInfo;\n    mapping (uint => Universities) public UniversityList;\n\n    uint public doctorCount;\n    uint public patientCount;\n    uint public healthinfoCount;\n    uint public universityCount;\n    uint public patientToDoctorCount;\n\n\n\n    event DrDetailsAdded(address admin, address doctor);\n    event HealthRecordsAdded(address dr, address patient);\n    event GrantAccessToDr(address dr, address patient);\n\n    // modifier OnlyOwner(){\n    //     require(msg.sender == owner,\"ONLY ADMIN IS ALLOWED\");\n    //     _;\n    // }\n    \n    // modifier Only_Doctors{\n    //     require(DoctorInfo[msg.sender].state == true,\"REGISTERED DOCTORS ONLY\");\n    //     _;\n    // }\n    \n    // modifier Only_Patients{\n    //     require(PatientInfo[msg.sender].state == true,\"REGISTERED PATIENTS ONLY\");\n    //     _;\n    // }\n    \n    address owner;\n    \n    constructor() public{\n        owner = msg.sender;\n    }\n    \n    struct Doctor{\n        bool state; // To check whether the doctor is registered or not\n        address dr_Id; // Address of doctor\n        string d_Name; // Name of doctor\n        string d_phone_Number;\n        string d_speciality;\n        uint d_date_of_birth;\n        address universities;\n    }\n    \n    struct Patient{\n        bool state; // To check whether patient is genuine\n        address pa_Id; // Address of registered patient\n        string pa_Name; // Name of Patient Name\n        string[] pa_Records;  // Used to store the prescription records of corresponding patients\n        string pa_phone_Number;\n        string pa_blood_type;\n        uint pa_date_of_birth;\n    }\n    \n    struct PrescriptionDetails{\n        string symptom;\n        string prescription; // prescription details of patient given by doctor\n        \n    }\n    \n    struct HealthRecords{\n        Doctor d;\n        Patient p;\n        PrescriptionDetails pre;\n        PrescriptionDetails[] records; // Used to store prescription records of patient w.r.t doctor\n    }\n    \n    struct Universities{\n        address _uId;\n        string name;\n        string president;\n        string region;\n    }\n    \n    // Function to add Doctor details, done by admin only\n    function setDoctorDetails(address _drId,string memory _name,string memory _phone_Number,string memory _speciality, uint _date_of_birth) public  {\n        doctorCount += 1;\n        DoctorInfo[_drId] = Doctor(false,_drId,_name,_phone_Number,_speciality,_date_of_birth,msg.sender);\n        DoctorList[doctorCount] = Doctor(false,_drId,_name,_phone_Number,_speciality,_date_of_birth,msg.sender);\n\n        emit DrDetailsAdded(msg.sender, _drId);\n    }\n    \n    \n    \n    // Function to get Doctor details for admin\n    function getDoctorDetails(address _Id) public view returns(bool _state,address _drId,string memory _name,string memory _phone_Number,string memory _speciality, uint _date_of_birth){\n        _state = DoctorInfo[_Id].state;\n        _drId = DoctorInfo[_Id].dr_Id;\n        _name = DoctorInfo[_Id].d_Name;\n        _phone_Number=DoctorInfo[_Id].d_phone_Number;\n        _speciality = DoctorInfo[_Id].d_speciality;\n        _date_of_birth=DoctorInfo[_Id].d_date_of_birth;\n    }\n    \n    \n    \n    \n    // Function to add HealthRecords of patients, done by registered doctors only\n    function setHealthRecordsDetails(string memory _paName, address _paId, string memory _prescription,string memory _symptom, string memory _paRecords) public {\n        healthinfoCount +=1;\n        HealthInfo[msg.sender][_paId].d.d_Name = DoctorInfo[msg.sender].d_Name; \n        HealthInfo[msg.sender][_paId].d.dr_Id = DoctorInfo[msg.sender].dr_Id;\n        HealthInfo[msg.sender][_paId].p.state = true;\n        HealthInfo[msg.sender][_paId].p.pa_Id = _paId;\n        HealthInfo[msg.sender][_paId].p.pa_Name = _paName;\n        HealthInfo[msg.sender][_paId].pre.prescription = _prescription;\n        HealthInfo[msg.sender][_paId].records.push(PrescriptionDetails(_symptom,_prescription));\n        PatientInfo[_paId].pa_Records.push(_paRecords);\n        PatientList[patientCount].pa_Records.push(_paRecords);\n        \n        // setPatientDetails(true,HealthInfo[msg.sender][_paId].p.pa_Id,HealthInfo[msg.sender][_paId].p.pa_Name,PatientInfo[_paId].pa_Records,PatientInfo[_paId].pa_phone_Number,PatientInfo[_paId].pa_blood_type,PatientInfo[_paId].pa_date_of_birth);\n        emit HealthRecordsAdded(msg.sender, _paId);\n    }\n    \n    \n    \n    // Function to add Patient details,\n\n    \n    function setPatientDetails(address _paId, string memory _paName, string memory _paPhoneNumber,string memory _paBloodType, uint _paDateOfBirth) public {\n        patientCount +=1;\n        string[] memory _paRecords;\n        PatientInfo[_paId] = Patient(true,_paId,_paName,_paRecords,_paPhoneNumber,_paBloodType,_paDateOfBirth);\n        PatientList[patientCount] = Patient(true,_paId,_paName,_paRecords,_paPhoneNumber,_paBloodType,_paDateOfBirth);\n    }\n    \n    \n    \n    // Function to get Patient details\n    function getPatientDetails(address _Id) public view returns(bool _state,address _paId,string memory _paName,string[] memory _paRecords,string memory _paPhoneNumber, string memory _paBloodType, uint _paDateOfBirth ){\n    //    require(PatientInfo[msg.sender].state == true || patientToDoctor[_Id][msg.sender] == 1,\"PATIENTS OR ACCESS_GRANTED_DOCTORS ONLY\");\n        _state = PatientInfo[_Id].state;\n        _paId = PatientInfo[_Id].pa_Id;\n        _paName = PatientInfo[_Id].pa_Name;\n        _paRecords = PatientInfo[_Id].pa_Records;\n       _paPhoneNumber = PatientInfo[_Id].pa_phone_Number;\n       _paBloodType = PatientInfo[_Id].pa_blood_type;\n       _paDateOfBirth = PatientInfo[_Id].pa_date_of_birth;\n\n       return(\n           _state,\n           _paId,\n           _paName,\n           _paRecords,\n           _paPhoneNumber,\n           _paBloodType,\n           _paDateOfBirth\n       );\n        \n    }\n     function getPatientDetailsById(uint _Id) public view returns(bool _state,address _paId,string memory _paName,string[] memory _paRecords,string memory _paPhoneNumber, string memory _paBloodType, uint _paDateOfBirth ){\n    //    require(PatientInfo[msg.sender].state == true || patientToDoctor[_Id][msg.sender] == 1,\"PATIENTS OR ACCESS_GRANTED_DOCTORS ONLY\");\n        _state = PatientList[_Id].state;\n        _paId = PatientList[_Id].pa_Id;\n        _paName = PatientList[_Id].pa_Name;\n        _paRecords = PatientList[_Id].pa_Records;\n       _paPhoneNumber = PatientList[_Id].pa_phone_Number;\n       _paBloodType = PatientList[_Id].pa_blood_type;\n       _paDateOfBirth = PatientList[_Id].pa_date_of_birth;\n\n       return(\n           _state,\n           _paId,\n           _paName,\n           _paRecords,\n           _paPhoneNumber,\n           _paBloodType,\n           _paDateOfBirth\n       );\n        \n    }\n    \n    \n    \n    // Function to get HealthRecords only for registered patients\n    function getHealthRecords(address _dr) public view returns(string memory _drName, address _drId, string memory _paName, address _paId,string memory _prescription,PrescriptionDetails[] memory _rec) {\n        _drName = HealthInfo[_dr][msg.sender].d.d_Name;\n        _drId = HealthInfo[_dr][msg.sender].d.dr_Id;\n        _paName = HealthInfo[_dr][msg.sender].p.pa_Name;\n        _paId = HealthInfo[_dr][msg.sender].p.pa_Id;\n        _prescription = HealthInfo[_dr][msg.sender].pre.prescription;\n        _rec = HealthInfo[_dr][msg.sender].records;\n        return(\n            _drName,\n            _drId,\n            _paName,\n            _paId,\n            _prescription,\n            _rec\n        );\n    }\n\n\n\n    // Function to grant access to doctor ,so that the doctors with access can view the corresponding patients HealthRecords\n    function grantAccessToDoctor(address doctor_id,uint access) public {\n    \tpatientToDoctor[msg.sender][doctor_id] = access;\n        emit GrantAccessToDr(doctor_id,msg.sender);\n      }\n  \t\n  \t\n  \t\n  \t// Function to get HealthRecords only for registered Doctors\n  \tfunction getHealthRecordsForDoctor(address _paId) public view returns(string memory _drName, address _drId, string memory _paName, address _pId,string memory _prescription,PrescriptionDetails[] memory _rec){\n\t\t// require(patientToDoctor[_paId][msg.sender] == 1,\"DR ACCESS NOT GRANTED\");\n\t\t_drName = HealthInfo[msg.sender][_paId].d.d_Name;\n        _drId = HealthInfo[msg.sender][_paId].d.dr_Id;\n        _paName = HealthInfo[msg.sender][_paId].p.pa_Name;\n        _pId = HealthInfo[msg.sender][_paId].p.pa_Id; \n        _prescription = HealthInfo[msg.sender][_paId].pre.prescription;\n        _rec = HealthInfo[msg.sender][_paId].records;\n        return(\n            _drName,\n            _drId,\n            _paName,\n            _pId,\n            _prescription,\n            _rec\n        );\n\t}\n\n     function setUniversities(address _uId,string memory _name,string memory _president,string memory _region) public {\n        universityCount +=1;\n        UniversityInfo[_uId] = Universities(_uId,_name,_president,_region);\n        UniversityList[universityCount] = Universities(_uId,_name,_president,_region);\n    }\n    function getUniversities(address _uId) public returns(string memory _uniName, string memory _uniPresident, string memory _uniRegion){\n        _uniName = UniversityInfo[_uId].name;\n        _uniPresident = UniversityInfo[_uId].president;\n        _uniRegion = UniversityInfo[_uId].region;\n        return(\n            _uniName,\n            _uniPresident,\n            _uniRegion\n        );\n    }\n\n    function updateDoctorState(address dr_Id, bool state) public returns(bool _state){\n       DoctorInfo[dr_Id].state = state;\n       return(\n           true\n       );\n    }\n    \n\n}",
  "sourcePath": "/home/rediet/Downloads/Telegram Desktop/healthcare-blockchain-main/Truffle/contracts/MedicalChain.sol",
  "compiler": {
    "name": "solc",
    "version": "0.8.10+commit.fc410830.Emscripten.clang"
  },
  "schemaVersion": "3.4.4",
  "updatedAt": "2022-01-14T06:56:23.934Z",
  "networkType": "ethereum",
  "devdoc": {
    "kind": "dev",
    "methods": {},
    "version": 1
  },
  "userdoc": {
    "kind": "user",
    "methods": {},
    "version": 1
  }
}