{
  "contractName": "MedicalChain",
  "abi": [
    {
      "inputs": [],
      "stateMutability": "nonpayable",
      "type": "constructor"
    },
    {
      "anonymous": false,
      "inputs": [
        {
          "indexed": false,
          "internalType": "address",
          "name": "admin",
          "type": "address"
        },
        {
          "indexed": false,
          "internalType": "address",
          "name": "doctor",
          "type": "address"
        }
      ],
      "name": "DrDetailsAdded",
      "type": "event"
    },
    {
      "anonymous": false,
      "inputs": [
        {
          "indexed": false,
          "internalType": "address",
          "name": "dr",
          "type": "address"
        },
        {
          "indexed": false,
          "internalType": "address",
          "name": "patient",
          "type": "address"
        }
      ],
      "name": "GrantAccessToDr",
      "type": "event"
    },
    {
      "anonymous": false,
      "inputs": [
        {
          "indexed": false,
          "internalType": "address",
          "name": "dr",
          "type": "address"
        },
        {
          "indexed": false,
          "internalType": "address",
          "name": "patient",
          "type": "address"
        }
      ],
      "name": "HealthRecordsAdded",
      "type": "event"
    },
    {
      "inputs": [
        {
          "internalType": "address",
          "name": "",
          "type": "address"
        }
      ],
      "name": "DoctorInfo",
      "outputs": [
        {
          "internalType": "bool",
          "name": "state",
          "type": "bool"
        },
        {
          "internalType": "address",
          "name": "dr_Id",
          "type": "address"
        },
        {
          "internalType": "string",
          "name": "d_Name",
          "type": "string"
        },
        {
          "internalType": "string",
          "name": "d_phone_Number",
          "type": "string"
        },
        {
          "internalType": "string",
          "name": "d_speciality",
          "type": "string"
        },
        {
          "internalType": "uint256",
          "name": "d_date_of_birth",
          "type": "uint256"
        },
        {
          "internalType": "address",
          "name": "universities",
          "type": "address"
        },
        {
          "internalType": "uint256",
          "name": "dr_row",
          "type": "uint256"
        }
      ],
      "stateMutability": "view",
      "type": "function",
      "constant": true
    },
    {
      "inputs": [
        {
          "internalType": "uint256",
          "name": "",
          "type": "uint256"
        }
      ],
      "name": "DoctorList",
      "outputs": [
        {
          "internalType": "bool",
          "name": "state",
          "type": "bool"
        },
        {
          "internalType": "address",
          "name": "dr_Id",
          "type": "address"
        },
        {
          "internalType": "string",
          "name": "d_Name",
          "type": "string"
        },
        {
          "internalType": "string",
          "name": "d_phone_Number",
          "type": "string"
        },
        {
          "internalType": "string",
          "name": "d_speciality",
          "type": "string"
        },
        {
          "internalType": "uint256",
          "name": "d_date_of_birth",
          "type": "uint256"
        },
        {
          "internalType": "address",
          "name": "universities",
          "type": "address"
        },
        {
          "internalType": "uint256",
          "name": "dr_row",
          "type": "uint256"
        }
      ],
      "stateMutability": "view",
      "type": "function",
      "constant": true
    },
    {
      "inputs": [
        {
          "internalType": "address",
          "name": "",
          "type": "address"
        },
        {
          "internalType": "address",
          "name": "",
          "type": "address"
        }
      ],
      "name": "HealthInfo",
      "outputs": [
        {
          "components": [
            {
              "internalType": "bool",
              "name": "state",
              "type": "bool"
            },
            {
              "internalType": "address",
              "name": "dr_Id",
              "type": "address"
            },
            {
              "internalType": "string",
              "name": "d_Name",
              "type": "string"
            },
            {
              "internalType": "string",
              "name": "d_phone_Number",
              "type": "string"
            },
            {
              "internalType": "string",
              "name": "d_speciality",
              "type": "string"
            },
            {
              "internalType": "uint256",
              "name": "d_date_of_birth",
              "type": "uint256"
            },
            {
              "internalType": "address",
              "name": "universities",
              "type": "address"
            },
            {
              "internalType": "uint256",
              "name": "dr_row",
              "type": "uint256"
            }
          ],
          "internalType": "struct MedicalChain.Doctor",
          "name": "d",
          "type": "tuple"
        },
        {
          "components": [
            {
              "internalType": "bool",
              "name": "state",
              "type": "bool"
            },
            {
              "internalType": "address",
              "name": "pa_Id",
              "type": "address"
            },
            {
              "internalType": "string",
              "name": "pa_Name",
              "type": "string"
            },
            {
              "internalType": "string[]",
              "name": "pa_Records",
              "type": "string[]"
            },
            {
              "internalType": "string",
              "name": "pa_phone_Number",
              "type": "string"
            },
            {
              "internalType": "string",
              "name": "pa_blood_type",
              "type": "string"
            },
            {
              "internalType": "uint256",
              "name": "pa_date_of_birth",
              "type": "uint256"
            }
          ],
          "internalType": "struct MedicalChain.Patient",
          "name": "p",
          "type": "tuple"
        },
        {
          "components": [
            {
              "internalType": "string",
              "name": "symptom",
              "type": "string"
            },
            {
              "internalType": "string",
              "name": "prescription",
              "type": "string"
            }
          ],
          "internalType": "struct MedicalChain.PrescriptionDetails",
          "name": "pre",
          "type": "tuple"
        }
      ],
      "stateMutability": "view",
      "type": "function",
      "constant": true
    },
    {
      "inputs": [
        {
          "internalType": "address",
          "name": "",
          "type": "address"
        }
      ],
      "name": "PatientInfo",
      "outputs": [
        {
          "internalType": "bool",
          "name": "state",
          "type": "bool"
        },
        {
          "internalType": "address",
          "name": "pa_Id",
          "type": "address"
        },
        {
          "internalType": "string",
          "name": "pa_Name",
          "type": "string"
        },
        {
          "internalType": "string",
          "name": "pa_phone_Number",
          "type": "string"
        },
        {
          "internalType": "string",
          "name": "pa_blood_type",
          "type": "string"
        },
        {
          "internalType": "uint256",
          "name": "pa_date_of_birth",
          "type": "uint256"
        }
      ],
      "stateMutability": "view",
      "type": "function",
      "constant": true
    },
    {
      "inputs": [
        {
          "internalType": "uint256",
          "name": "",
          "type": "uint256"
        }
      ],
      "name": "PatientList",
      "outputs": [
        {
          "internalType": "bool",
          "name": "state",
          "type": "bool"
        },
        {
          "internalType": "address",
          "name": "pa_Id",
          "type": "address"
        },
        {
          "internalType": "string",
          "name": "pa_Name",
          "type": "string"
        },
        {
          "internalType": "string",
          "name": "pa_phone_Number",
          "type": "string"
        },
        {
          "internalType": "string",
          "name": "pa_blood_type",
          "type": "string"
        },
        {
          "internalType": "uint256",
          "name": "pa_date_of_birth",
          "type": "uint256"
        }
      ],
      "stateMutability": "view",
      "type": "function",
      "constant": true
    },
    {
      "inputs": [
        {
          "internalType": "address",
          "name": "",
          "type": "address"
        }
      ],
      "name": "UniversityInfo",
      "outputs": [
        {
          "internalType": "address",
          "name": "_uId",
          "type": "address"
        },
        {
          "internalType": "string",
          "name": "name",
          "type": "string"
        },
        {
          "internalType": "string",
          "name": "president",
          "type": "string"
        },
        {
          "internalType": "string",
          "name": "region",
          "type": "string"
        }
      ],
      "stateMutability": "view",
      "type": "function",
      "constant": true
    },
    {
      "inputs": [
        {
          "internalType": "uint256",
          "name": "",
          "type": "uint256"
        }
      ],
      "name": "UniversityList",
      "outputs": [
        {
          "internalType": "address",
          "name": "_uId",
          "type": "address"
        },
        {
          "internalType": "string",
          "name": "name",
          "type": "string"
        },
        {
          "internalType": "string",
          "name": "president",
          "type": "string"
        },
        {
          "internalType": "string",
          "name": "region",
          "type": "string"
        }
      ],
      "stateMutability": "view",
      "type": "function",
      "constant": true
    },
    {
      "inputs": [],
      "name": "doctorCount",
      "outputs": [
        {
          "internalType": "uint256",
          "name": "",
          "type": "uint256"
        }
      ],
      "stateMutability": "view",
      "type": "function",
      "constant": true
    },
    {
      "inputs": [],
      "name": "healthinfoCount",
      "outputs": [
        {
          "internalType": "uint256",
          "name": "",
          "type": "uint256"
        }
      ],
      "stateMutability": "view",
      "type": "function",
      "constant": true
    },
    {
      "inputs": [],
      "name": "patientCount",
      "outputs": [
        {
          "internalType": "uint256",
          "name": "",
          "type": "uint256"
        }
      ],
      "stateMutability": "view",
      "type": "function",
      "constant": true
    },
    {
      "inputs": [],
      "name": "patientToDoctorCount",
      "outputs": [
        {
          "internalType": "uint256",
          "name": "",
          "type": "uint256"
        }
      ],
      "stateMutability": "view",
      "type": "function",
      "constant": true
    },
    {
      "inputs": [],
      "name": "universityCount",
      "outputs": [
        {
          "internalType": "uint256",
          "name": "",
          "type": "uint256"
        }
      ],
      "stateMutability": "view",
      "type": "function",
      "constant": true
    },
    {
      "inputs": [
        {
          "internalType": "address",
          "name": "_drId",
          "type": "address"
        },
        {
          "internalType": "string",
          "name": "_name",
          "type": "string"
        },
        {
          "internalType": "string",
          "name": "_phone_Number",
          "type": "string"
        },
        {
          "internalType": "string",
          "name": "_speciality",
          "type": "string"
        },
        {
          "internalType": "uint256",
          "name": "_date_of_birth",
          "type": "uint256"
        }
      ],
      "name": "setDoctorDetails",
      "outputs": [],
      "stateMutability": "nonpayable",
      "type": "function"
    },
    {
      "inputs": [
        {
          "internalType": "address",
          "name": "_Id",
          "type": "address"
        }
      ],
      "name": "getDoctorDetails",
      "outputs": [
        {
          "internalType": "bool",
          "name": "_state",
          "type": "bool"
        },
        {
          "internalType": "address",
          "name": "_drId",
          "type": "address"
        },
        {
          "internalType": "string",
          "name": "_name",
          "type": "string"
        },
        {
          "internalType": "string",
          "name": "_phone_Number",
          "type": "string"
        },
        {
          "internalType": "string",
          "name": "_speciality",
          "type": "string"
        },
        {
          "internalType": "uint256",
          "name": "_date_of_birth",
          "type": "uint256"
        }
      ],
      "stateMutability": "view",
      "type": "function",
      "constant": true
    },
    {
      "inputs": [
        {
          "internalType": "string",
          "name": "_paName",
          "type": "string"
        },
        {
          "internalType": "address",
          "name": "_paId",
          "type": "address"
        },
        {
          "internalType": "string",
          "name": "_prescription",
          "type": "string"
        },
        {
          "internalType": "string",
          "name": "_symptom",
          "type": "string"
        },
        {
          "internalType": "string",
          "name": "_paRecords",
          "type": "string"
        }
      ],
      "name": "setHealthRecordsDetails",
      "outputs": [],
      "stateMutability": "nonpayable",
      "type": "function"
    },
    {
      "inputs": [
        {
          "internalType": "address",
          "name": "_paId",
          "type": "address"
        },
        {
          "internalType": "string",
          "name": "_paName",
          "type": "string"
        },
        {
          "internalType": "string",
          "name": "_paPhoneNumber",
          "type": "string"
        },
        {
          "internalType": "string",
          "name": "_paBloodType",
          "type": "string"
        },
        {
          "internalType": "uint256",
          "name": "_paDateOfBirth",
          "type": "uint256"
        }
      ],
      "name": "setPatientDetails",
      "outputs": [],
      "stateMutability": "nonpayable",
      "type": "function"
    },
    {
      "inputs": [
        {
          "internalType": "address",
          "name": "_Id",
          "type": "address"
        }
      ],
      "name": "getPatientDetails",
      "outputs": [
        {
          "internalType": "bool",
          "name": "_state",
          "type": "bool"
        },
        {
          "internalType": "address",
          "name": "_paId",
          "type": "address"
        },
        {
          "internalType": "string",
          "name": "_paName",
          "type": "string"
        },
        {
          "internalType": "string[]",
          "name": "_paRecords",
          "type": "string[]"
        },
        {
          "internalType": "string",
          "name": "_paPhoneNumber",
          "type": "string"
        },
        {
          "internalType": "string",
          "name": "_paBloodType",
          "type": "string"
        },
        {
          "internalType": "uint256",
          "name": "_paDateOfBirth",
          "type": "uint256"
        }
      ],
      "stateMutability": "view",
      "type": "function",
      "constant": true
    },
    {
      "inputs": [
        {
          "internalType": "uint256",
          "name": "_Id",
          "type": "uint256"
        }
      ],
      "name": "getPatientDetailsById",
      "outputs": [
        {
          "internalType": "bool",
          "name": "_state",
          "type": "bool"
        },
        {
          "internalType": "address",
          "name": "_paId",
          "type": "address"
        },
        {
          "internalType": "string",
          "name": "_paName",
          "type": "string"
        },
        {
          "internalType": "string[]",
          "name": "_paRecords",
          "type": "string[]"
        },
        {
          "internalType": "string",
          "name": "_paPhoneNumber",
          "type": "string"
        },
        {
          "internalType": "string",
          "name": "_paBloodType",
          "type": "string"
        },
        {
          "internalType": "uint256",
          "name": "_paDateOfBirth",
          "type": "uint256"
        }
      ],
      "stateMutability": "view",
      "type": "function",
      "constant": true
    },
    {
      "inputs": [
        {
          "internalType": "address",
          "name": "_dr",
          "type": "address"
        }
      ],
      "name": "getHealthRecords",
      "outputs": [
        {
          "internalType": "string",
          "name": "_drName",
          "type": "string"
        },
        {
          "internalType": "address",
          "name": "_drId",
          "type": "address"
        },
        {
          "internalType": "string",
          "name": "_paName",
          "type": "string"
        },
        {
          "internalType": "address",
          "name": "_paId",
          "type": "address"
        },
        {
          "internalType": "string",
          "name": "_prescription",
          "type": "string"
        },
        {
          "components": [
            {
              "internalType": "string",
              "name": "symptom",
              "type": "string"
            },
            {
              "internalType": "string",
              "name": "prescription",
              "type": "string"
            }
          ],
          "internalType": "struct MedicalChain.PrescriptionDetails[]",
          "name": "_rec",
          "type": "tuple[]"
        }
      ],
      "stateMutability": "view",
      "type": "function",
      "constant": true
    },
    {
      "inputs": [
        {
          "internalType": "address",
          "name": "doctor_id",
          "type": "address"
        },
        {
          "internalType": "uint256",
          "name": "access",
          "type": "uint256"
        }
      ],
      "name": "grantAccessToDoctor",
      "outputs": [],
      "stateMutability": "nonpayable",
      "type": "function"
    },
    {
      "inputs": [
        {
          "internalType": "address",
          "name": "_paId",
          "type": "address"
        }
      ],
      "name": "getHealthRecordsForDoctor",
      "outputs": [
        {
          "internalType": "string",
          "name": "_drName",
          "type": "string"
        },
        {
          "internalType": "address",
          "name": "_drId",
          "type": "address"
        },
        {
          "internalType": "string",
          "name": "_paName",
          "type": "string"
        },
        {
          "internalType": "address",
          "name": "_pId",
          "type": "address"
        },
        {
          "internalType": "string",
          "name": "_prescription",
          "type": "string"
        },
        {
          "components": [
            {
              "internalType": "string",
              "name": "symptom",
              "type": "string"
            },
            {
              "internalType": "string",
              "name": "prescription",
              "type": "string"
            }
          ],
          "internalType": "struct MedicalChain.PrescriptionDetails[]",
          "name": "_rec",
          "type": "tuple[]"
        }
      ],
      "stateMutability": "view",
      "type": "function",
      "constant": true
    },
    {
      "inputs": [
        {
          "internalType": "address",
          "name": "_uId",
          "type": "address"
        },
        {
          "internalType": "string",
          "name": "_name",
          "type": "string"
        },
        {
          "internalType": "string",
          "name": "_president",
          "type": "string"
        },
        {
          "internalType": "string",
          "name": "_region",
          "type": "string"
        }
      ],
      "name": "setUniversities",
      "outputs": [],
      "stateMutability": "nonpayable",
      "type": "function"
    },
    {
      "inputs": [
        {
          "internalType": "address",
          "name": "_uId",
          "type": "address"
        }
      ],
      "name": "getUniversities",
      "outputs": [
        {
          "internalType": "string",
          "name": "_uniName",
          "type": "string"
        },
        {
          "internalType": "string",
          "name": "_uniPresident",
          "type": "string"
        },
        {
          "internalType": "string",
          "name": "_uniRegion",
          "type": "string"
        }
      ],
      "stateMutability": "nonpayable",
      "type": "function"
    },
    {
      "inputs": [
        {
          "internalType": "address",
          "name": "dr_Id",
          "type": "address"
        },
        {
          "internalType": "bool",
          "name": "state",
          "type": "bool"
        }
      ],
      "name": "updateDoctorState",
      "outputs": [
        {
          "internalType": "bool",
          "name": "_state",
          "type": "bool"
        }
      ],
      "stateMutability": "nonpayable",
      "type": "function"
    }
  ],
  "bytecode": "0x608060405234801561001057600080fd5b5033600d60006101000a81548173ffffffffffffffffffffffffffffffffffffffff021916908373ffffffffffffffffffffffffffffffffffffffff1602179055506155d180620000626000396000f3fe608060405234801561001057600080fd5b50600436106101585760003560e01c80639fcbeca3116100c3578063defbca0f1161007c578063defbca0f1461047f578063ec218c651461049b578063efe2ccc1146104b7578063f83009ba146104ed578063fab3cb1914610522578063fbb2e4e61461054057610158565b80639fcbeca314610371578063a0303c41146103a8578063b1d00841146103c6578063b25afeb3146103e2578063bab90dbd14610414578063d3ff82391461044957610158565b80635c2f8fb4116101155780635c2f8fb414610268578063643da5511461029b5780637827c01a146102ce57806378522bc4146103035780639645f461146103215780639a639a051461035357610158565b80631ce8e4551461015d57806323e1e91a1461019257806330fa3e60146101c25780633a722271146101f7578063418374f31461022e578063506f17731461024c575b600080fd5b610177600480360381019061017291906146bb565b61055c565b604051610189969594939291906147ec565b60405180910390f35b6101ac60048036038101906101a791906148ba565b61075d565b6040516101b991906148fa565b60405180910390f35b6101dc60048036038101906101d79190614915565b610831565b6040516101ee969594939291906147ec565b60405180910390f35b610211600480360381019061020c91906146bb565b610a32565b604051610225989796959493929190614942565b60405180910390f35b610236610c5f565b60405161024391906149d5565b60405180910390f35b610266600480360381019061026191906149f0565b610c65565b005b610282600480360381019061027d91906146bb565b610d23565b6040516102929493929190614a30565b60405180910390f35b6102b560048036038101906102b09190614915565b610f0b565b6040516102c59493929190614a30565b60405180910390f35b6102e860048036038101906102e39190614915565b6110f3565b6040516102fa96959493929190614bda565b60405180910390f35b61030b611773565b60405161031891906149d5565b60405180910390f35b61033b60048036038101906103369190614c57565b611779565b60405161034a93929190614f39565b60405180910390f35b61035b611e8e565b60405161036891906149d5565b60405180910390f35b61038b60048036038101906103869190614915565b611e94565b60405161039f989796959493929190614942565b60405180910390f35b6103b06120c1565b6040516103bd91906149d5565b60405180910390f35b6103e060048036038101906103db91906150ba565b6120c7565b005b6103fc60048036038101906103f79190614915565b6122eb565b60405161040b93929190615175565b60405180910390f35b61042e60048036038101906104299190614915565b61255e565b604051610440969594939291906147ec565b60405180910390f35b610463600480360381019061045e91906146bb565b6128ce565b6040516104769796959493929190615247565b60405180910390f35b610499600480360381019061049491906152d2565b612c27565b005b6104b560048036038101906104b091906153a1565b612fe2565b005b6104d160048036038101906104cc9190614915565b61368a565b6040516104e49796959493929190615247565b60405180910390f35b61050760048036038101906105029190614915565b613b17565b60405161051996959493929190614bda565b60405180910390f35b61052a614197565b60405161053791906149d5565b60405180910390f35b61055a600480360381019061055591906152d2565b61419d565b005b60036020528060005260406000206000915090508060000160009054906101000a900460ff16908060000160019054906101000a900473ffffffffffffffffffffffffffffffffffffffff16908060010180546105b8906154bb565b80601f01602080910402602001604051908101604052809291908181526020018280546105e4906154bb565b80156106315780601f1061060657610100808354040283529160200191610631565b820191906000526020600020905b81548152906001019060200180831161061457829003601f168201915b505050505090806003018054610646906154bb565b80601f0160208091040260200160405190810160405280929190818152602001828054610672906154bb565b80156106bf5780601f10610694576101008083540402835291602001916106bf565b820191906000526020600020905b8154815290600101906020018083116106a257829003601f168201915b5050505050908060040180546106d4906154bb565b80601f0160208091040260200160405190810160405280929190818152602001828054610700906154bb565b801561074d5780601f106107225761010080835404028352916020019161074d565b820191906000526020600020905b81548152906001019060200180831161073057829003601f168201915b5050505050908060050154905086565b6000816000808573ffffffffffffffffffffffffffffffffffffffff1673ffffffffffffffffffffffffffffffffffffffff16815260200190815260200160002060000160006101000a81548160ff02191690831515021790555081600160008060008773ffffffffffffffffffffffffffffffffffffffff1673ffffffffffffffffffffffffffffffffffffffff16815260200190815260200160002060060154815260200190815260200160002060000160006101000a81548160ff0219169083151502179055506001905092915050565b60026020528060005260406000206000915090508060000160009054906101000a900460ff16908060000160019054906101000a900473ffffffffffffffffffffffffffffffffffffffff169080600101805461088d906154bb565b80601f01602080910402602001604051908101604052809291908181526020018280546108b9906154bb565b80156109065780601f106108db57610100808354040283529160200191610906565b820191906000526020600020905b8154815290600101906020018083116108e957829003601f168201915b50505050509080600301805461091b906154bb565b80601f0160208091040260200160405190810160405280929190818152602001828054610947906154bb565b80156109945780601f1061096957610100808354040283529160200191610994565b820191906000526020600020905b81548152906001019060200180831161097757829003601f168201915b5050505050908060040180546109a9906154bb565b80601f01602080910402602001604051908101604052809291908181526020018280546109d5906154bb565b8015610a225780601f106109f757610100808354040283529160200191610a22565b820191906000526020600020905b815481529060010190602001808311610a0557829003601f168201915b5050505050908060050154905086565b60016020528060005260406000206000915090508060000160009054906101000a900460ff16908060000160019054906101000a900473ffffffffffffffffffffffffffffffffffffffff1690806001018054610a8e906154bb565b80601f0160208091040260200160405190810160405280929190818152602001828054610aba906154bb565b8015610b075780601f10610adc57610100808354040283529160200191610b07565b820191906000526020600020905b815481529060010190602001808311610aea57829003601f168201915b505050505090806002018054610b1c906154bb565b80601f0160208091040260200160405190810160405280929190818152602001828054610b48906154bb565b8015610b955780601f10610b6a57610100808354040283529160200191610b95565b820191906000526020600020905b815481529060010190602001808311610b7857829003601f168201915b505050505090806003018054610baa906154bb565b80601f0160208091040260200160405190810160405280929190818152602001828054610bd6906154bb565b8015610c235780601f10610bf857610100808354040283529160200191610c23565b820191906000526020600020905b815481529060010190602001808311610c0657829003601f168201915b5050505050908060040154908060050160009054906101000a900473ffffffffffffffffffffffffffffffffffffffff16908060060154905088565b600b5481565b80600560003373ffffffffffffffffffffffffffffffffffffffff1673ffffffffffffffffffffffffffffffffffffffff16815260200190815260200160002060008473ffffffffffffffffffffffffffffffffffffffff1673ffffffffffffffffffffffffffffffffffffffff168152602001908152602001600020819055507f19dd02d0615ff9058c55159271b51d3d8ead87b40cc392e6dbeca6483cff33338233604051610d179291906154ed565b60405180910390a15050565b60076020528060005260406000206000915090508060000160009054906101000a900473ffffffffffffffffffffffffffffffffffffffff1690806001018054610d6c906154bb565b80601f0160208091040260200160405190810160405280929190818152602001828054610d98906154bb565b8015610de55780601f10610dba57610100808354040283529160200191610de5565b820191906000526020600020905b815481529060010190602001808311610dc857829003601f168201915b505050505090806002018054610dfa906154bb565b80601f0160208091040260200160405190810160405280929190818152602001828054610e26906154bb565b8015610e735780601f10610e4857610100808354040283529160200191610e73565b820191906000526020600020905b815481529060010190602001808311610e5657829003601f168201915b505050505090806003018054610e88906154bb565b80601f0160208091040260200160405190810160405280929190818152602001828054610eb4906154bb565b8015610f015780601f10610ed657610100808354040283529160200191610f01565b820191906000526020600020905b815481529060010190602001808311610ee457829003601f168201915b5050505050905084565b60066020528060005260406000206000915090508060000160009054906101000a900473ffffffffffffffffffffffffffffffffffffffff1690806001018054610f54906154bb565b80601f0160208091040260200160405190810160405280929190818152602001828054610f80906154bb565b8015610fcd5780601f10610fa257610100808354040283529160200191610fcd565b820191906000526020600020905b815481529060010190602001808311610fb057829003601f168201915b505050505090806002018054610fe2906154bb565b80601f016020809104026020016040519081016040528092919081815260200182805461100e906154bb565b801561105b5780601f106110305761010080835404028352916020019161105b565b820191906000526020600020905b81548152906001019060200180831161103e57829003601f168201915b505050505090806003018054611070906154bb565b80601f016020809104026020016040519081016040528092919081815260200182805461109c906154bb565b80156110e95780601f106110be576101008083540402835291602001916110e9565b820191906000526020600020905b8154815290600101906020018083116110cc57829003601f168201915b5050505050905084565b6060600060606000606080600460008873ffffffffffffffffffffffffffffffffffffffff1673ffffffffffffffffffffffffffffffffffffffff16815260200190815260200160002060003373ffffffffffffffffffffffffffffffffffffffff1673ffffffffffffffffffffffffffffffffffffffff168152602001908152602001600020600001600101805461118b906154bb565b80601f01602080910402602001604051908101604052809291908181526020018280546111b7906154bb565b80156112045780601f106111d957610100808354040283529160200191611204565b820191906000526020600020905b8154815290600101906020018083116111e757829003601f168201915b50505050509550600460008873ffffffffffffffffffffffffffffffffffffffff1673ffffffffffffffffffffffffffffffffffffffff16815260200190815260200160002060003373ffffffffffffffffffffffffffffffffffffffff1673ffffffffffffffffffffffffffffffffffffffff16815260200190815260200160002060000160000160019054906101000a900473ffffffffffffffffffffffffffffffffffffffff169450600460008873ffffffffffffffffffffffffffffffffffffffff1673ffffffffffffffffffffffffffffffffffffffff16815260200190815260200160002060003373ffffffffffffffffffffffffffffffffffffffff1673ffffffffffffffffffffffffffffffffffffffff168152602001908152602001600020600701600101805461133d906154bb565b80601f0160208091040260200160405190810160405280929190818152602001828054611369906154bb565b80156113b65780601f1061138b576101008083540402835291602001916113b6565b820191906000526020600020905b81548152906001019060200180831161139957829003601f168201915b50505050509350600460008873ffffffffffffffffffffffffffffffffffffffff1673ffffffffffffffffffffffffffffffffffffffff16815260200190815260200160002060003373ffffffffffffffffffffffffffffffffffffffff1673ffffffffffffffffffffffffffffffffffffffff16815260200190815260200160002060070160000160019054906101000a900473ffffffffffffffffffffffffffffffffffffffff169250600460008873ffffffffffffffffffffffffffffffffffffffff1673ffffffffffffffffffffffffffffffffffffffff16815260200190815260200160002060003373ffffffffffffffffffffffffffffffffffffffff1673ffffffffffffffffffffffffffffffffffffffff168152602001908152602001600020600d0160010180546114ef906154bb565b80601f016020809104026020016040519081016040528092919081815260200182805461151b906154bb565b80156115685780601f1061153d57610100808354040283529160200191611568565b820191906000526020600020905b81548152906001019060200180831161154b57829003601f168201915b50505050509150600460008873ffffffffffffffffffffffffffffffffffffffff1673ffffffffffffffffffffffffffffffffffffffff16815260200190815260200160002060003373ffffffffffffffffffffffffffffffffffffffff1673ffffffffffffffffffffffffffffffffffffffff168152602001908152602001600020600f01805480602002602001604051908101604052809291908181526020016000905b828210156117645783829060005260206000209060020201604051806040016040529081600082018054611641906154bb565b80601f016020809104026020016040519081016040528092919081815260200182805461166d906154bb565b80156116ba5780601f1061168f576101008083540402835291602001916116ba565b820191906000526020600020905b81548152906001019060200180831161169d57829003601f168201915b505050505081526020016001820180546116d3906154bb565b80601f01602080910402602001604051908101604052809291908181526020018280546116ff906154bb565b801561174c5780601f106117215761010080835404028352916020019161174c565b820191906000526020600020905b81548152906001019060200180831161172f57829003601f168201915b5050505050815250508152602001906001019061160e565b50505050905091939550919395565b60085481565b60046020528160005260406000206020528060005260406000206000915091505080600001604051806101000160405290816000820160009054906101000a900460ff161515151581526020016000820160019054906101000a900473ffffffffffffffffffffffffffffffffffffffff1673ffffffffffffffffffffffffffffffffffffffff1673ffffffffffffffffffffffffffffffffffffffff16815260200160018201805461182b906154bb565b80601f0160208091040260200160405190810160405280929190818152602001828054611857906154bb565b80156118a45780601f10611879576101008083540402835291602001916118a4565b820191906000526020600020905b81548152906001019060200180831161188757829003601f168201915b505050505081526020016002820180546118bd906154bb565b80601f01602080910402602001604051908101604052809291908181526020018280546118e9906154bb565b80156119365780601f1061190b57610100808354040283529160200191611936565b820191906000526020600020905b81548152906001019060200180831161191957829003601f168201915b5050505050815260200160038201805461194f906154bb565b80601f016020809104026020016040519081016040528092919081815260200182805461197b906154bb565b80156119c85780601f1061199d576101008083540402835291602001916119c8565b820191906000526020600020905b8154815290600101906020018083116119ab57829003601f168201915b50505050508152602001600482015481526020016005820160009054906101000a900473ffffffffffffffffffffffffffffffffffffffff1673ffffffffffffffffffffffffffffffffffffffff1673ffffffffffffffffffffffffffffffffffffffff16815260200160068201548152505090806007016040518060e00160405290816000820160009054906101000a900460ff161515151581526020016000820160019054906101000a900473ffffffffffffffffffffffffffffffffffffffff1673ffffffffffffffffffffffffffffffffffffffff1673ffffffffffffffffffffffffffffffffffffffff168152602001600182018054611acc906154bb565b80601f0160208091040260200160405190810160405280929190818152602001828054611af8906154bb565b8015611b455780601f10611b1a57610100808354040283529160200191611b45565b820191906000526020600020905b815481529060010190602001808311611b2857829003601f168201915b5050505050815260200160028201805480602002602001604051908101604052809291908181526020016000905b82821015611c1f578382906000526020600020018054611b92906154bb565b80601f0160208091040260200160405190810160405280929190818152602001828054611bbe906154bb565b8015611c0b5780601f10611be057610100808354040283529160200191611c0b565b820191906000526020600020905b815481529060010190602001808311611bee57829003601f168201915b505050505081526020019060010190611b73565b505050508152602001600382018054611c37906154bb565b80601f0160208091040260200160405190810160405280929190818152602001828054611c63906154bb565b8015611cb05780601f10611c8557610100808354040283529160200191611cb0565b820191906000526020600020905b815481529060010190602001808311611c9357829003601f168201915b50505050508152602001600482018054611cc9906154bb565b80601f0160208091040260200160405190810160405280929190818152602001828054611cf5906154bb565b8015611d425780601f10611d1757610100808354040283529160200191611d42565b820191906000526020600020905b815481529060010190602001808311611d2557829003601f168201915b505050505081526020016005820154815250509080600d01604051806040016040529081600082018054611d75906154bb565b80601f0160208091040260200160405190810160405280929190818152602001828054611da1906154bb565b8015611dee5780601f10611dc357610100808354040283529160200191611dee565b820191906000526020600020905b815481529060010190602001808311611dd157829003601f168201915b50505050508152602001600182018054611e07906154bb565b80601f0160208091040260200160405190810160405280929190818152602001828054611e33906154bb565b8015611e805780601f10611e5557610100808354040283529160200191611e80565b820191906000526020600020905b815481529060010190602001808311611e6357829003601f168201915b505050505081525050905083565b600c5481565b60006020528060005260406000206000915090508060000160009054906101000a900460ff16908060000160019054906101000a900473ffffffffffffffffffffffffffffffffffffffff1690806001018054611ef0906154bb565b80601f0160208091040260200160405190810160405280929190818152602001828054611f1c906154bb565b8015611f695780601f10611f3e57610100808354040283529160200191611f69565b820191906000526020600020905b815481529060010190602001808311611f4c57829003601f168201915b505050505090806002018054611f7e906154bb565b80601f0160208091040260200160405190810160405280929190818152602001828054611faa906154bb565b8015611ff75780601f10611fcc57610100808354040283529160200191611ff7565b820191906000526020600020905b815481529060010190602001808311611fda57829003601f168201915b50505050509080600301805461200c906154bb565b80601f0160208091040260200160405190810160405280929190818152602001828054612038906154bb565b80156120855780601f1061205a57610100808354040283529160200191612085565b820191906000526020600020905b81548152906001019060200180831161206857829003601f168201915b5050505050908060040154908060050160009054906101000a900473ffffffffffffffffffffffffffffffffffffffff16908060060154905088565b60095481565b6001600b60008282546120da9190615545565b9250508190555060405180608001604052808573ffffffffffffffffffffffffffffffffffffffff16815260200184815260200183815260200182815250600660008673ffffffffffffffffffffffffffffffffffffffff1673ffffffffffffffffffffffffffffffffffffffff16815260200190815260200160002060008201518160000160006101000a81548173ffffffffffffffffffffffffffffffffffffffff021916908373ffffffffffffffffffffffffffffffffffffffff16021790555060208201518160010190805190602001906121ba92919061447d565b5060408201518160020190805190602001906121d792919061447d565b5060608201518160030190805190602001906121f492919061447d565b5090505060405180608001604052808573ffffffffffffffffffffffffffffffffffffffff1681526020018481526020018381526020018281525060076000600b54815260200190815260200160002060008201518160000160006101000a81548173ffffffffffffffffffffffffffffffffffffffff021916908373ffffffffffffffffffffffffffffffffffffffff16021790555060208201518160010190805190602001906122a792919061447d565b5060408201518160020190805190602001906122c492919061447d565b5060608201518160030190805190602001906122e192919061447d565b5090505050505050565b6060806060600660008573ffffffffffffffffffffffffffffffffffffffff1673ffffffffffffffffffffffffffffffffffffffff168152602001908152602001600020600101805461233d906154bb565b80601f0160208091040260200160405190810160405280929190818152602001828054612369906154bb565b80156123b65780601f1061238b576101008083540402835291602001916123b6565b820191906000526020600020905b81548152906001019060200180831161239957829003601f168201915b50505050509250600660008573ffffffffffffffffffffffffffffffffffffffff1673ffffffffffffffffffffffffffffffffffffffff168152602001908152602001600020600201805461240a906154bb565b80601f0160208091040260200160405190810160405280929190818152602001828054612436906154bb565b80156124835780601f1061245857610100808354040283529160200191612483565b820191906000526020600020905b81548152906001019060200180831161246657829003601f168201915b50505050509150600660008573ffffffffffffffffffffffffffffffffffffffff1673ffffffffffffffffffffffffffffffffffffffff16815260200190815260200160002060030180546124d7906154bb565b80601f0160208091040260200160405190810160405280929190818152602001828054612503906154bb565b80156125505780601f1061252557610100808354040283529160200191612550565b820191906000526020600020905b81548152906001019060200180831161253357829003601f168201915b505050505090509193909250565b600080606080606060008060008873ffffffffffffffffffffffffffffffffffffffff1673ffffffffffffffffffffffffffffffffffffffff16815260200190815260200160002060000160009054906101000a900460ff1695506000808873ffffffffffffffffffffffffffffffffffffffff1673ffffffffffffffffffffffffffffffffffffffff16815260200190815260200160002060000160019054906101000a900473ffffffffffffffffffffffffffffffffffffffff1694506000808873ffffffffffffffffffffffffffffffffffffffff1673ffffffffffffffffffffffffffffffffffffffff1681526020019081526020016000206001018054612669906154bb565b80601f0160208091040260200160405190810160405280929190818152602001828054612695906154bb565b80156126e25780601f106126b7576101008083540402835291602001916126e2565b820191906000526020600020905b8154815290600101906020018083116126c557829003601f168201915b505050505093506000808873ffffffffffffffffffffffffffffffffffffffff1673ffffffffffffffffffffffffffffffffffffffff1681526020019081526020016000206002018054612735906154bb565b80601f0160208091040260200160405190810160405280929190818152602001828054612761906154bb565b80156127ae5780601f10612783576101008083540402835291602001916127ae565b820191906000526020600020905b81548152906001019060200180831161279157829003601f168201915b505050505092506000808873ffffffffffffffffffffffffffffffffffffffff1673ffffffffffffffffffffffffffffffffffffffff1681526020019081526020016000206003018054612801906154bb565b80601f016020809104026020016040519081016040528092919081815260200182805461282d906154bb565b801561287a5780601f1061284f5761010080835404028352916020019161287a565b820191906000526020600020905b81548152906001019060200180831161285d57829003601f168201915b505050505091506000808873ffffffffffffffffffffffffffffffffffffffff1673ffffffffffffffffffffffffffffffffffffffff16815260200190815260200160002060040154905091939550919395565b60008060608060608060006003600089815260200190815260200160002060000160009054906101000a900460ff1696506003600089815260200190815260200160002060000160019054906101000a900473ffffffffffffffffffffffffffffffffffffffff169550600360008981526020019081526020016000206001018054612959906154bb565b80601f0160208091040260200160405190810160405280929190818152602001828054612985906154bb565b80156129d25780601f106129a7576101008083540402835291602001916129d2565b820191906000526020600020905b8154815290600101906020018083116129b557829003601f168201915b5050505050945060036000898152602001908152602001600020600201805480602002602001604051908101604052809291908181526020016000905b82821015612abb578382906000526020600020018054612a2e906154bb565b80601f0160208091040260200160405190810160405280929190818152602001828054612a5a906154bb565b8015612aa75780601f10612a7c57610100808354040283529160200191612aa7565b820191906000526020600020905b815481529060010190602001808311612a8a57829003601f168201915b505050505081526020019060010190612a0f565b505050509350600360008981526020019081526020016000206003018054612ae2906154bb565b80601f0160208091040260200160405190810160405280929190818152602001828054612b0e906154bb565b8015612b5b5780601f10612b3057610100808354040283529160200191612b5b565b820191906000526020600020905b815481529060010190602001808311612b3e57829003601f168201915b50505050509250600360008981526020019081526020016000206004018054612b83906154bb565b80601f0160208091040260200160405190810160405280929190818152602001828054612baf906154bb565b8015612bfc5780601f10612bd157610100808354040283529160200191612bfc565b820191906000526020600020905b815481529060010190602001808311612bdf57829003601f168201915b5050505050915060036000898152602001908152602001600020600501549050919395979092949650565b600160086000828254612c3a9190615545565b925050819055506040518061010001604052806000151581526020018673ffffffffffffffffffffffffffffffffffffffff1681526020018581526020018481526020018381526020018281526020013373ffffffffffffffffffffffffffffffffffffffff1681526020016008548152506000808773ffffffffffffffffffffffffffffffffffffffff1673ffffffffffffffffffffffffffffffffffffffff16815260200190815260200160002060008201518160000160006101000a81548160ff02191690831515021790555060208201518160000160016101000a81548173ffffffffffffffffffffffffffffffffffffffff021916908373ffffffffffffffffffffffffffffffffffffffff1602179055506040820151816001019080519060200190612d6d92919061447d565b506060820151816002019080519060200190612d8a92919061447d565b506080820151816003019080519060200190612da792919061447d565b5060a0820151816004015560c08201518160050160006101000a81548173ffffffffffffffffffffffffffffffffffffffff021916908373ffffffffffffffffffffffffffffffffffffffff16021790555060e082015181600601559050506040518061010001604052806000151581526020018673ffffffffffffffffffffffffffffffffffffffff1681526020018581526020018481526020018381526020018281526020013373ffffffffffffffffffffffffffffffffffffffff16815260200160085481525060016000600854815260200190815260200160002060008201518160000160006101000a81548160ff02191690831515021790555060208201518160000160016101000a81548173ffffffffffffffffffffffffffffffffffffffff021916908373ffffffffffffffffffffffffffffffffffffffff1602179055506040820151816001019080519060200190612f0992919061447d565b506060820151816002019080519060200190612f2692919061447d565b506080820151816003019080519060200190612f4392919061447d565b5060a0820151816004015560c08201518160050160006101000a81548173ffffffffffffffffffffffffffffffffffffffff021916908373ffffffffffffffffffffffffffffffffffffffff16021790555060e082015181600601559050507f83c041d3aeb1dcb1f28cb15e20bdfee5ed1ca3740e487f9cab72e13eeb8595053386604051612fd39291906154ed565b60405180910390a15050505050565b6001600a6000828254612ff59190615545565b925050819055506000803373ffffffffffffffffffffffffffffffffffffffff1673ffffffffffffffffffffffffffffffffffffffff168152602001908152602001600020600101600460003373ffffffffffffffffffffffffffffffffffffffff1673ffffffffffffffffffffffffffffffffffffffff16815260200190815260200160002060008673ffffffffffffffffffffffffffffffffffffffff1673ffffffffffffffffffffffffffffffffffffffff1681526020019081526020016000206000016001019080546130cb906154bb565b6130d6929190614503565b506000803373ffffffffffffffffffffffffffffffffffffffff1673ffffffffffffffffffffffffffffffffffffffff16815260200190815260200160002060000160019054906101000a900473ffffffffffffffffffffffffffffffffffffffff16600460003373ffffffffffffffffffffffffffffffffffffffff1673ffffffffffffffffffffffffffffffffffffffff16815260200190815260200160002060008673ffffffffffffffffffffffffffffffffffffffff1673ffffffffffffffffffffffffffffffffffffffff16815260200190815260200160002060000160000160016101000a81548173ffffffffffffffffffffffffffffffffffffffff021916908373ffffffffffffffffffffffffffffffffffffffff1602179055506001600460003373ffffffffffffffffffffffffffffffffffffffff1673ffffffffffffffffffffffffffffffffffffffff16815260200190815260200160002060008673ffffffffffffffffffffffffffffffffffffffff1673ffffffffffffffffffffffffffffffffffffffff16815260200190815260200160002060070160000160006101000a81548160ff02191690831515021790555083600460003373ffffffffffffffffffffffffffffffffffffffff1673ffffffffffffffffffffffffffffffffffffffff16815260200190815260200160002060008673ffffffffffffffffffffffffffffffffffffffff1673ffffffffffffffffffffffffffffffffffffffff16815260200190815260200160002060070160000160016101000a81548173ffffffffffffffffffffffffffffffffffffffff021916908373ffffffffffffffffffffffffffffffffffffffff16021790555084600460003373ffffffffffffffffffffffffffffffffffffffff1673ffffffffffffffffffffffffffffffffffffffff16815260200190815260200160002060008673ffffffffffffffffffffffffffffffffffffffff1673ffffffffffffffffffffffffffffffffffffffff16815260200190815260200160002060070160010190805190602001906133eb92919061447d565b5082600460003373ffffffffffffffffffffffffffffffffffffffff1673ffffffffffffffffffffffffffffffffffffffff16815260200190815260200160002060008673ffffffffffffffffffffffffffffffffffffffff1673ffffffffffffffffffffffffffffffffffffffff168152602001908152602001600020600d01600101908051906020019061348292919061447d565b50600460003373ffffffffffffffffffffffffffffffffffffffff1673ffffffffffffffffffffffffffffffffffffffff16815260200190815260200160002060008573ffffffffffffffffffffffffffffffffffffffff1673ffffffffffffffffffffffffffffffffffffffff168152602001908152602001600020600f016040518060400160405280848152602001858152509080600181540180825580915050600190039060005260206000209060020201600090919091909150600082015181600001908051906020019061355c92919061447d565b50602082015181600101908051906020019061357992919061447d565b505050600260008573ffffffffffffffffffffffffffffffffffffffff1673ffffffffffffffffffffffffffffffffffffffff168152602001908152602001600020600201819080600181540180825580915050600190039060005260206000200160009091909190915090805190602001906135f792919061447d565b506003600060095481526020019081526020016000206002018190806001815401808255809150506001900390600052602060002001600090919091909150908051906020019061364992919061447d565b507ffd09d3da0077a9ed9d4af05531b2f844c840c94c1e6535e3d2a09a6ae1aa9a52338560405161367b9291906154ed565b60405180910390a15050505050565b6000806060806060806000600260008973ffffffffffffffffffffffffffffffffffffffff1673ffffffffffffffffffffffffffffffffffffffff16815260200190815260200160002060000160009054906101000a900460ff169650600260008973ffffffffffffffffffffffffffffffffffffffff1673ffffffffffffffffffffffffffffffffffffffff16815260200190815260200160002060000160019054906101000a900473ffffffffffffffffffffffffffffffffffffffff169550600260008973ffffffffffffffffffffffffffffffffffffffff1673ffffffffffffffffffffffffffffffffffffffff1681526020019081526020016000206001018054613799906154bb565b80601f01602080910402602001604051908101604052809291908181526020018280546137c5906154bb565b80156138125780601f106137e757610100808354040283529160200191613812565b820191906000526020600020905b8154815290600101906020018083116137f557829003601f168201915b50505050509450600260008973ffffffffffffffffffffffffffffffffffffffff1673ffffffffffffffffffffffffffffffffffffffff168152602001908152602001600020600201805480602002602001604051908101604052809291908181526020016000905b8282101561392757838290600052602060002001805461389a906154bb565b80601f01602080910402602001604051908101604052809291908181526020018280546138c6906154bb565b80156139135780601f106138e857610100808354040283529160200191613913565b820191906000526020600020905b8154815290600101906020018083116138f657829003601f168201915b50505050508152602001906001019061387b565b505050509350600260008973ffffffffffffffffffffffffffffffffffffffff1673ffffffffffffffffffffffffffffffffffffffff168152602001908152602001600020600301805461397a906154bb565b80601f01602080910402602001604051908101604052809291908181526020018280546139a6906154bb565b80156139f35780601f106139c8576101008083540402835291602001916139f3565b820191906000526020600020905b8154815290600101906020018083116139d657829003601f168201915b50505050509250600260008973ffffffffffffffffffffffffffffffffffffffff1673ffffffffffffffffffffffffffffffffffffffff1681526020019081526020016000206004018054613a47906154bb565b80601f0160208091040260200160405190810160405280929190818152602001828054613a73906154bb565b8015613ac05780601f10613a9557610100808354040283529160200191613ac0565b820191906000526020600020905b815481529060010190602001808311613aa357829003601f168201915b50505050509150600260008973ffffffffffffffffffffffffffffffffffffffff1673ffffffffffffffffffffffffffffffffffffffff168152602001908152602001600020600501549050919395979092949650565b6060600060606000606080600460003373ffffffffffffffffffffffffffffffffffffffff1673ffffffffffffffffffffffffffffffffffffffff16815260200190815260200160002060008873ffffffffffffffffffffffffffffffffffffffff1673ffffffffffffffffffffffffffffffffffffffff1681526020019081526020016000206000016001018054613baf906154bb565b80601f0160208091040260200160405190810160405280929190818152602001828054613bdb906154bb565b8015613c285780601f10613bfd57610100808354040283529160200191613c28565b820191906000526020600020905b815481529060010190602001808311613c0b57829003601f168201915b50505050509550600460003373ffffffffffffffffffffffffffffffffffffffff1673ffffffffffffffffffffffffffffffffffffffff16815260200190815260200160002060008873ffffffffffffffffffffffffffffffffffffffff1673ffffffffffffffffffffffffffffffffffffffff16815260200190815260200160002060000160000160019054906101000a900473ffffffffffffffffffffffffffffffffffffffff169450600460003373ffffffffffffffffffffffffffffffffffffffff1673ffffffffffffffffffffffffffffffffffffffff16815260200190815260200160002060008873ffffffffffffffffffffffffffffffffffffffff1673ffffffffffffffffffffffffffffffffffffffff1681526020019081526020016000206007016001018054613d61906154bb565b80601f0160208091040260200160405190810160405280929190818152602001828054613d8d906154bb565b8015613dda5780601f10613daf57610100808354040283529160200191613dda565b820191906000526020600020905b815481529060010190602001808311613dbd57829003601f168201915b50505050509350600460003373ffffffffffffffffffffffffffffffffffffffff1673ffffffffffffffffffffffffffffffffffffffff16815260200190815260200160002060008873ffffffffffffffffffffffffffffffffffffffff1673ffffffffffffffffffffffffffffffffffffffff16815260200190815260200160002060070160000160019054906101000a900473ffffffffffffffffffffffffffffffffffffffff169250600460003373ffffffffffffffffffffffffffffffffffffffff1673ffffffffffffffffffffffffffffffffffffffff16815260200190815260200160002060008873ffffffffffffffffffffffffffffffffffffffff1673ffffffffffffffffffffffffffffffffffffffff168152602001908152602001600020600d016001018054613f13906154bb565b80601f0160208091040260200160405190810160405280929190818152602001828054613f3f906154bb565b8015613f8c5780601f10613f6157610100808354040283529160200191613f8c565b820191906000526020600020905b815481529060010190602001808311613f6f57829003601f168201915b50505050509150600460003373ffffffffffffffffffffffffffffffffffffffff1673ffffffffffffffffffffffffffffffffffffffff16815260200190815260200160002060008873ffffffffffffffffffffffffffffffffffffffff1673ffffffffffffffffffffffffffffffffffffffff168152602001908152602001600020600f01805480602002602001604051908101604052809291908181526020016000905b828210156141885783829060005260206000209060020201604051806040016040529081600082018054614065906154bb565b80601f0160208091040260200160405190810160405280929190818152602001828054614091906154bb565b80156140de5780601f106140b3576101008083540402835291602001916140de565b820191906000526020600020905b8154815290600101906020018083116140c157829003601f168201915b505050505081526020016001820180546140f7906154bb565b80601f0160208091040260200160405190810160405280929190818152602001828054614123906154bb565b80156141705780601f1061414557610100808354040283529160200191614170565b820191906000526020600020905b81548152906001019060200180831161415357829003601f168201915b50505050508152505081526020019060010190614032565b50505050905091939550919395565b600a5481565b6001600960008282546141b09190615545565b9250508190555060606040518060e001604052806001151581526020018773ffffffffffffffffffffffffffffffffffffffff16815260200186815260200182815260200185815260200184815260200183815250600260008873ffffffffffffffffffffffffffffffffffffffff1673ffffffffffffffffffffffffffffffffffffffff16815260200190815260200160002060008201518160000160006101000a81548160ff02191690831515021790555060208201518160000160016101000a81548173ffffffffffffffffffffffffffffffffffffffff021916908373ffffffffffffffffffffffffffffffffffffffff16021790555060408201518160010190805190602001906142c792919061447d565b5060608201518160020190805190602001906142e4929190614590565b50608082015181600301908051906020019061430192919061447d565b5060a082015181600401908051906020019061431e92919061447d565b5060c082015181600501559050506040518060e001604052806001151581526020018773ffffffffffffffffffffffffffffffffffffffff1681526020018681526020018281526020018581526020018481526020018381525060036000600954815260200190815260200160002060008201518160000160006101000a81548160ff02191690831515021790555060208201518160000160016101000a81548173ffffffffffffffffffffffffffffffffffffffff021916908373ffffffffffffffffffffffffffffffffffffffff160217905550604082015181600101908051906020019061441092919061447d565b50606082015181600201908051906020019061442d929190614590565b50608082015181600301908051906020019061444a92919061447d565b5060a082015181600401908051906020019061446792919061447d565b5060c08201518160050155905050505050505050565b828054614489906154bb565b90600052602060002090601f0160209004810192826144ab57600085556144f2565b82601f106144c457805160ff19168380011785556144f2565b828001600101855582156144f2579182015b828111156144f15782518255916020019190600101906144d6565b5b5090506144ff91906145f0565b5090565b82805461450f906154bb565b90600052602060002090601f016020900481019282614531576000855561457f565b82601f10614542578054855561457f565b8280016001018555821561457f57600052602060002091601f016020900482015b8281111561457e578254825591600101919060010190614563565b5b50905061458c91906145f0565b5090565b8280548282559060005260206000209081019282156145df579160200282015b828111156145de5782518290805190602001906145ce92919061447d565b50916020019190600101906145b0565b5b5090506145ec919061460d565b5090565b5b808211156146095760008160009055506001016145f1565b5090565b5b8082111561462d57600081816146249190614631565b5060010161460e565b5090565b50805461463d906154bb565b6000825580601f1061464f575061466e565b601f01602090049060005260206000209081019061466d91906145f0565b5b50565b6000604051905090565b600080fd5b600080fd5b6000819050919050565b61469881614685565b81146146a357600080fd5b50565b6000813590506146b58161468f565b92915050565b6000602082840312156146d1576146d061467b565b5b60006146df848285016146a6565b91505092915050565b60008115159050919050565b6146fd816146e8565b82525050565b600073ffffffffffffffffffffffffffffffffffffffff82169050919050565b600061472e82614703565b9050919050565b61473e81614723565b82525050565b600081519050919050565b600082825260208201905092915050565b60005b8381101561477e578082015181840152602081019050614763565b8381111561478d576000848401525b50505050565b6000601f19601f8301169050919050565b60006147af82614744565b6147b9818561474f565b93506147c9818560208601614760565b6147d281614793565b840191505092915050565b6147e681614685565b82525050565b600060c08201905061480160008301896146f4565b61480e6020830188614735565b818103604083015261482081876147a4565b9050818103606083015261483481866147a4565b9050818103608083015261484881856147a4565b905061485760a08301846147dd565b979650505050505050565b61486b81614723565b811461487657600080fd5b50565b60008135905061488881614862565b92915050565b614897816146e8565b81146148a257600080fd5b50565b6000813590506148b48161488e565b92915050565b600080604083850312156148d1576148d061467b565b5b60006148df85828601614879565b92505060206148f0858286016148a5565b9150509250929050565b600060208201905061490f60008301846146f4565b92915050565b60006020828403121561492b5761492a61467b565b5b600061493984828501614879565b91505092915050565b600061010082019050614958600083018b6146f4565b614965602083018a614735565b818103604083015261497781896147a4565b9050818103606083015261498b81886147a4565b9050818103608083015261499f81876147a4565b90506149ae60a08301866147dd565b6149bb60c0830185614735565b6149c860e08301846147dd565b9998505050505050505050565b60006020820190506149ea60008301846147dd565b92915050565b60008060408385031215614a0757614a0661467b565b5b6000614a1585828601614879565b9250506020614a26858286016146a6565b9150509250929050565b6000608082019050614a456000830187614735565b8181036020830152614a5781866147a4565b90508181036040830152614a6b81856147a4565b90508181036060830152614a7f81846147a4565b905095945050505050565b600081519050919050565b600082825260208201905092915050565b6000819050602082019050919050565b600082825260208201905092915050565b6000614ad282614744565b614adc8185614ab6565b9350614aec818560208601614760565b614af581614793565b840191505092915050565b60006040830160008301518482036000860152614b1d8282614ac7565b91505060208301518482036020860152614b378282614ac7565b9150508091505092915050565b6000614b508383614b00565b905092915050565b6000602082019050919050565b6000614b7082614a8a565b614b7a8185614a95565b935083602082028501614b8c85614aa6565b8060005b85811015614bc85784840389528151614ba98582614b44565b9450614bb483614b58565b925060208a01995050600181019050614b90565b50829750879550505050505092915050565b600060c0820190508181036000830152614bf481896147a4565b9050614c036020830188614735565b8181036040830152614c1581876147a4565b9050614c246060830186614735565b8181036080830152614c3681856147a4565b905081810360a0830152614c4a8184614b65565b9050979650505050505050565b60008060408385031215614c6e57614c6d61467b565b5b6000614c7c85828601614879565b9250506020614c8d85828601614879565b9150509250929050565b614ca0816146e8565b82525050565b614caf81614723565b82525050565b614cbe81614685565b82525050565b600061010083016000830151614cdd6000860182614c97565b506020830151614cf06020860182614ca6565b5060408301518482036040860152614d088282614ac7565b91505060608301518482036060860152614d228282614ac7565b91505060808301518482036080860152614d3c8282614ac7565b91505060a0830151614d5160a0860182614cb5565b5060c0830151614d6460c0860182614ca6565b5060e0830151614d7760e0860182614cb5565b508091505092915050565b600081519050919050565b600082825260208201905092915050565b6000819050602082019050919050565b6000614dba8383614ac7565b905092915050565b6000602082019050919050565b6000614dda82614d82565b614de48185614d8d565b935083602082028501614df685614d9e565b8060005b85811015614e325784840389528151614e138582614dae565b9450614e1e83614dc2565b925060208a01995050600181019050614dfa565b50829750879550505050505092915050565b600060e083016000830151614e5c6000860182614c97565b506020830151614e6f6020860182614ca6565b5060408301518482036040860152614e878282614ac7565b91505060608301518482036060860152614ea18282614dcf565b91505060808301518482036080860152614ebb8282614ac7565b91505060a083015184820360a0860152614ed58282614ac7565b91505060c0830151614eea60c0860182614cb5565b508091505092915050565b60006040830160008301518482036000860152614f128282614ac7565b91505060208301518482036020860152614f2c8282614ac7565b9150508091505092915050565b60006060820190508181036000830152614f538186614cc4565b90508181036020830152614f678185614e44565b90508181036040830152614f7b8184614ef5565b9050949350505050565b600080fd5b600080fd5b7f4e487b7100000000000000000000000000000000000000000000000000000000600052604160045260246000fd5b614fc782614793565b810181811067ffffffffffffffff82111715614fe657614fe5614f8f565b5b80604052505050565b6000614ff9614671565b90506150058282614fbe565b919050565b600067ffffffffffffffff82111561502557615024614f8f565b5b61502e82614793565b9050602081019050919050565b82818337600083830152505050565b600061505d6150588461500a565b614fef565b90508281526020810184848401111561507957615078614f8a565b5b61508484828561503b565b509392505050565b600082601f8301126150a1576150a0614f85565b5b81356150b184826020860161504a565b91505092915050565b600080600080608085870312156150d4576150d361467b565b5b60006150e287828801614879565b945050602085013567ffffffffffffffff81111561510357615102614680565b5b61510f8782880161508c565b935050604085013567ffffffffffffffff8111156151305761512f614680565b5b61513c8782880161508c565b925050606085013567ffffffffffffffff81111561515d5761515c614680565b5b6151698782880161508c565b91505092959194509250565b6000606082019050818103600083015261518f81866147a4565b905081810360208301526151a381856147a4565b905081810360408301526151b781846147a4565b9050949350505050565b600082825260208201905092915050565b60006151dd82614d82565b6151e781856151c1565b9350836020820285016151f985614d9e565b8060005b8581101561523557848403895281516152168582614dae565b945061522183614dc2565b925060208a019950506001810190506151fd565b50829750879550505050505092915050565b600060e08201905061525c600083018a6146f4565b6152696020830189614735565b818103604083015261527b81886147a4565b9050818103606083015261528f81876151d2565b905081810360808301526152a381866147a4565b905081810360a08301526152b781856147a4565b90506152c660c08301846147dd565b98975050505050505050565b600080600080600060a086880312156152ee576152ed61467b565b5b60006152fc88828901614879565b955050602086013567ffffffffffffffff81111561531d5761531c614680565b5b6153298882890161508c565b945050604086013567ffffffffffffffff81111561534a57615349614680565b5b6153568882890161508c565b935050606086013567ffffffffffffffff81111561537757615376614680565b5b6153838882890161508c565b9250506080615394888289016146a6565b9150509295509295909350565b600080600080600060a086880312156153bd576153bc61467b565b5b600086013567ffffffffffffffff8111156153db576153da614680565b5b6153e78882890161508c565b95505060206153f888828901614879565b945050604086013567ffffffffffffffff81111561541957615418614680565b5b6154258882890161508c565b935050606086013567ffffffffffffffff81111561544657615445614680565b5b6154528882890161508c565b925050608086013567ffffffffffffffff81111561547357615472614680565b5b61547f8882890161508c565b9150509295509295909350565b7f4e487b7100000000000000000000000000000000000000000000000000000000600052602260045260246000fd5b600060028204905060018216806154d357607f821691505b602082108114156154e7576154e661548c565b5b50919050565b60006040820190506155026000830185614735565b61550f6020830184614735565b9392505050565b7f4e487b7100000000000000000000000000000000000000000000000000000000600052601160045260246000fd5b600061555082614685565b915061555b83614685565b9250827fffffffffffffffffffffffffffffffffffffffffffffffffffffffffffffffff038211156155905761558f615516565b5b82820190509291505056fea264697066735822122084126c813f3ea632358ec1e291a64e497f9e8005580c64d1911858331d627e2264736f6c634300080a0033",
  "immutableReferences": {},
  "source": "pragma solidity >=0.4.22 <0.9.0;\n\ncontract MedicalChain{\n\n    mapping(address=>Doctor)public DoctorInfo;\n    mapping (uint => Doctor) public DoctorList;\n    mapping(address=>Patient) public PatientInfo;\n    mapping (uint=> Patient) public PatientList;\n    mapping(address=> mapping(address => HealthRecords))public HealthInfo;\n    mapping (address => mapping (address => uint)) private patientToDoctor;\n    mapping(address => Universities)public UniversityInfo;\n    mapping (uint => Universities) public UniversityList;\n\n    uint public doctorCount;\n    uint public patientCount;\n    uint public healthinfoCount;\n    uint public universityCount;\n    uint public patientToDoctorCount;\n\n\n\n    event DrDetailsAdded(address admin, address doctor);\n    event HealthRecordsAdded(address dr, address patient);\n    event GrantAccessToDr(address dr, address patient);\n\n    // modifier OnlyOwner(){\n    //     require(msg.sender == owner,\"ONLY ADMIN IS ALLOWED\");\n    //     _;\n    // }\n    \n    // modifier Only_Doctors{\n    //     require(DoctorInfo[msg.sender].state == true,\"REGISTERED DOCTORS ONLY\");\n    //     _;\n    // }\n    \n    // modifier Only_Patients{\n    //     require(PatientInfo[msg.sender].state == true,\"REGISTERED PATIENTS ONLY\");\n    //     _;\n    // }\n    \n    address owner;\n    \n    constructor() public{\n        owner = msg.sender;\n    }\n    \n    struct Doctor{\n        bool state; // To check whether the doctor is registered or not\n        address dr_Id; // Address of doctor\n        string d_Name; // Name of doctor\n        string d_phone_Number;\n        string d_speciality;\n        uint d_date_of_birth;\n        address universities;\n        uint dr_row;\n    }\n    \n    struct Patient{\n        bool state; // To check whether patient is genuine\n        address pa_Id; // Address of registered patient\n        string pa_Name; // Name of Patient Name\n        string[] pa_Records;  // Used to store the prescription records of corresponding patients\n        string pa_phone_Number;\n        string pa_blood_type;\n        uint pa_date_of_birth;\n    }\n    \n    struct PrescriptionDetails{\n        string symptom;\n        string prescription; // prescription details of patient given by doctor\n        \n    }\n    \n    struct HealthRecords{\n        Doctor d;\n        Patient p;\n        PrescriptionDetails pre;\n        PrescriptionDetails[] records; // Used to store prescription records of patient w.r.t doctor\n    }\n    \n    struct Universities{\n        address _uId;\n        string name;\n        string president;\n        string region;\n    }\n    \n    // Function to add Doctor details, done by admin only\n    function setDoctorDetails(address _drId,string memory _name,string memory _phone_Number,string memory _speciality, uint _date_of_birth) public  {\n        doctorCount += 1;\n        DoctorInfo[_drId] = Doctor(false,_drId,_name,_phone_Number,_speciality,_date_of_birth,msg.sender, doctorCount);\n        DoctorList[doctorCount] = Doctor(false,_drId,_name,_phone_Number,_speciality,_date_of_birth,msg.sender, doctorCount);\n\n        emit DrDetailsAdded(msg.sender, _drId);\n    }\n    \n    \n    \n    // Function to get Doctor details for admin\n    function getDoctorDetails(address _Id) public view returns(bool _state,address _drId,string memory _name,string memory _phone_Number,string memory _speciality, uint _date_of_birth){\n        _state = DoctorInfo[_Id].state;\n        _drId = DoctorInfo[_Id].dr_Id;\n        _name = DoctorInfo[_Id].d_Name;\n        _phone_Number=DoctorInfo[_Id].d_phone_Number;\n        _speciality = DoctorInfo[_Id].d_speciality;\n        _date_of_birth=DoctorInfo[_Id].d_date_of_birth;\n    }\n    \n    \n    \n    \n    // Function to add HealthRecords of patients, done by registered doctors only\n    function setHealthRecordsDetails(string memory _paName, address _paId, string memory _prescription,string memory _symptom, string memory _paRecords) public {\n        healthinfoCount +=1;\n        HealthInfo[msg.sender][_paId].d.d_Name = DoctorInfo[msg.sender].d_Name; \n        HealthInfo[msg.sender][_paId].d.dr_Id = DoctorInfo[msg.sender].dr_Id;\n        HealthInfo[msg.sender][_paId].p.state = true;\n        HealthInfo[msg.sender][_paId].p.pa_Id = _paId;\n        HealthInfo[msg.sender][_paId].p.pa_Name = _paName;\n        HealthInfo[msg.sender][_paId].pre.prescription = _prescription;\n        HealthInfo[msg.sender][_paId].records.push(PrescriptionDetails(_symptom,_prescription));\n        PatientInfo[_paId].pa_Records.push(_paRecords);\n        PatientList[patientCount].pa_Records.push(_paRecords);\n        \n        // setPatientDetails(true,HealthInfo[msg.sender][_paId].p.pa_Id,HealthInfo[msg.sender][_paId].p.pa_Name,PatientInfo[_paId].pa_Records,PatientInfo[_paId].pa_phone_Number,PatientInfo[_paId].pa_blood_type,PatientInfo[_paId].pa_date_of_birth);\n        emit HealthRecordsAdded(msg.sender, _paId);\n    }\n    \n    \n    \n    // Function to add Patient details,\n\n    \n    function setPatientDetails(address _paId, string memory _paName, string memory _paPhoneNumber,string memory _paBloodType, uint _paDateOfBirth) public {\n        patientCount +=1;\n        string[] memory _paRecords;\n        PatientInfo[_paId] = Patient(true,_paId,_paName,_paRecords,_paPhoneNumber,_paBloodType,_paDateOfBirth);\n        PatientList[patientCount] = Patient(true,_paId,_paName,_paRecords,_paPhoneNumber,_paBloodType,_paDateOfBirth);\n    }\n    \n    \n    \n    // Function to get Patient details\n    function getPatientDetails(address _Id) public view returns(bool _state,address _paId,string memory _paName,string[] memory _paRecords,string memory _paPhoneNumber, string memory _paBloodType, uint _paDateOfBirth ){\n    //    require(PatientInfo[msg.sender].state == true || patientToDoctor[_Id][msg.sender] == 1,\"PATIENTS OR ACCESS_GRANTED_DOCTORS ONLY\");\n        _state = PatientInfo[_Id].state;\n        _paId = PatientInfo[_Id].pa_Id;\n        _paName = PatientInfo[_Id].pa_Name;\n        _paRecords = PatientInfo[_Id].pa_Records;\n       _paPhoneNumber = PatientInfo[_Id].pa_phone_Number;\n       _paBloodType = PatientInfo[_Id].pa_blood_type;\n       _paDateOfBirth = PatientInfo[_Id].pa_date_of_birth;\n\n       return(\n           _state,\n           _paId,\n           _paName,\n           _paRecords,\n           _paPhoneNumber,\n           _paBloodType,\n           _paDateOfBirth\n       );\n        \n    }\n     function getPatientDetailsById(uint _Id) public view returns(bool _state,address _paId,string memory _paName,string[] memory _paRecords,string memory _paPhoneNumber, string memory _paBloodType, uint _paDateOfBirth ){\n    //    require(PatientInfo[msg.sender].state == true || patientToDoctor[_Id][msg.sender] == 1,\"PATIENTS OR ACCESS_GRANTED_DOCTORS ONLY\");\n        _state = PatientList[_Id].state;\n        _paId = PatientList[_Id].pa_Id;\n        _paName = PatientList[_Id].pa_Name;\n        _paRecords = PatientList[_Id].pa_Records;\n       _paPhoneNumber = PatientList[_Id].pa_phone_Number;\n       _paBloodType = PatientList[_Id].pa_blood_type;\n       _paDateOfBirth = PatientList[_Id].pa_date_of_birth;\n\n       return(\n           _state,\n           _paId,\n           _paName,\n           _paRecords,\n           _paPhoneNumber,\n           _paBloodType,\n           _paDateOfBirth\n       );\n        \n    }\n    \n    \n    \n    // Function to get HealthRecords only for registered patients\n    function getHealthRecords(address _dr) public view returns(string memory _drName, address _drId, string memory _paName, address _paId,string memory _prescription,PrescriptionDetails[] memory _rec) {\n        _drName = HealthInfo[_dr][msg.sender].d.d_Name;\n        _drId = HealthInfo[_dr][msg.sender].d.dr_Id;\n        _paName = HealthInfo[_dr][msg.sender].p.pa_Name;\n        _paId = HealthInfo[_dr][msg.sender].p.pa_Id;\n        _prescription = HealthInfo[_dr][msg.sender].pre.prescription;\n        _rec = HealthInfo[_dr][msg.sender].records;\n        return(\n            _drName,\n            _drId,\n            _paName,\n            _paId,\n            _prescription,\n            _rec\n        );\n    }\n\n\n\n    // Function to grant access to doctor ,so that the doctors with access can view the corresponding patients HealthRecords\n    function grantAccessToDoctor(address doctor_id,uint access) public {\n    \tpatientToDoctor[msg.sender][doctor_id] = access;\n        emit GrantAccessToDr(doctor_id,msg.sender);\n      }\n  \t\n  \t\n  \t\n  \t// Function to get HealthRecords only for registered Doctors\n  \tfunction getHealthRecordsForDoctor(address _paId) public view returns(string memory _drName, address _drId, string memory _paName, address _pId,string memory _prescription,PrescriptionDetails[] memory _rec){\n\t\t// require(patientToDoctor[_paId][msg.sender] == 1,\"DR ACCESS NOT GRANTED\");\n\t\t_drName = HealthInfo[msg.sender][_paId].d.d_Name;\n        _drId = HealthInfo[msg.sender][_paId].d.dr_Id;\n        _paName = HealthInfo[msg.sender][_paId].p.pa_Name;\n        _pId = HealthInfo[msg.sender][_paId].p.pa_Id; \n        _prescription = HealthInfo[msg.sender][_paId].pre.prescription;\n        _rec = HealthInfo[msg.sender][_paId].records;\n        return(\n            _drName,\n            _drId,\n            _paName,\n            _pId,\n            _prescription,\n            _rec\n        );\n\t}\n\n     function setUniversities(address _uId,string memory _name,string memory _president,string memory _region) public {\n        universityCount +=1;\n        UniversityInfo[_uId] = Universities(_uId,_name,_president,_region);\n        UniversityList[universityCount] = Universities(_uId,_name,_president,_region);\n    }\n    function getUniversities(address _uId) public returns(string memory _uniName, string memory _uniPresident, string memory _uniRegion){\n        _uniName = UniversityInfo[_uId].name;\n        _uniPresident = UniversityInfo[_uId].president;\n        _uniRegion = UniversityInfo[_uId].region;\n        return(\n            _uniName,\n            _uniPresident,\n            _uniRegion\n        );\n    }\n\n    function updateDoctorState(address dr_Id, bool state) public returns(bool _state){\n       DoctorInfo[dr_Id].state = state;\n       DoctorList[DoctorInfo[dr_Id].dr_row].state = state;\n       return(\n           true\n       );\n    }\n    \n\n}",
  "sourcePath": "/home/rediet/Downloads/Telegram Desktop/healthcare-blockchain-main/Truffle/contracts/MedicalChain.sol",
  "compiler": {
    "name": "solc",
    "version": "0.8.10+commit.fc410830.Emscripten.clang"
  },
  "schemaVersion": "3.4.4",
  "updatedAt": "2022-01-14T20:32:32.689Z",
  "networkType": "ethereum",
  "devdoc": {
    "kind": "dev",
    "methods": {},
    "version": 1
  },
  "userdoc": {
    "kind": "user",
    "methods": {},
    "version": 1
  }
}